{
	"resolver.sol": {
		"OwnerRecipientResolver": {
			"abi": [
				{
					"inputs": [
						{
							"internalType": "contract IEAS",
							"name": "eas",
							"type": "address"
						}
					],
					"stateMutability": "nonpayable",
					"type": "constructor"
				},
				{
					"inputs": [],
					"name": "AccessDenied",
					"type": "error"
				},
				{
					"inputs": [],
					"name": "InsufficientValue",
					"type": "error"
				},
				{
					"inputs": [],
					"name": "InvalidEAS",
					"type": "error"
				},
				{
					"inputs": [],
					"name": "InvalidLength",
					"type": "error"
				},
				{
					"inputs": [],
					"name": "NotPayable",
					"type": "error"
				},
				{
					"inputs": [
						{
							"components": [
								{
									"internalType": "bytes32",
									"name": "uid",
									"type": "bytes32"
								},
								{
									"internalType": "bytes32",
									"name": "schema",
									"type": "bytes32"
								},
								{
									"internalType": "uint64",
									"name": "time",
									"type": "uint64"
								},
								{
									"internalType": "uint64",
									"name": "expirationTime",
									"type": "uint64"
								},
								{
									"internalType": "uint64",
									"name": "revocationTime",
									"type": "uint64"
								},
								{
									"internalType": "bytes32",
									"name": "refUID",
									"type": "bytes32"
								},
								{
									"internalType": "address",
									"name": "recipient",
									"type": "address"
								},
								{
									"internalType": "address",
									"name": "attester",
									"type": "address"
								},
								{
									"internalType": "bool",
									"name": "revocable",
									"type": "bool"
								},
								{
									"internalType": "bytes",
									"name": "data",
									"type": "bytes"
								}
							],
							"internalType": "struct Attestation",
							"name": "attestation",
							"type": "tuple"
						}
					],
					"name": "attest",
					"outputs": [
						{
							"internalType": "bool",
							"name": "",
							"type": "bool"
						}
					],
					"stateMutability": "payable",
					"type": "function"
				},
				{
					"inputs": [],
					"name": "isPayable",
					"outputs": [
						{
							"internalType": "bool",
							"name": "",
							"type": "bool"
						}
					],
					"stateMutability": "pure",
					"type": "function"
				},
				{
					"inputs": [
						{
							"components": [
								{
									"internalType": "bytes32",
									"name": "uid",
									"type": "bytes32"
								},
								{
									"internalType": "bytes32",
									"name": "schema",
									"type": "bytes32"
								},
								{
									"internalType": "uint64",
									"name": "time",
									"type": "uint64"
								},
								{
									"internalType": "uint64",
									"name": "expirationTime",
									"type": "uint64"
								},
								{
									"internalType": "uint64",
									"name": "revocationTime",
									"type": "uint64"
								},
								{
									"internalType": "bytes32",
									"name": "refUID",
									"type": "bytes32"
								},
								{
									"internalType": "address",
									"name": "recipient",
									"type": "address"
								},
								{
									"internalType": "address",
									"name": "attester",
									"type": "address"
								},
								{
									"internalType": "bool",
									"name": "revocable",
									"type": "bool"
								},
								{
									"internalType": "bytes",
									"name": "data",
									"type": "bytes"
								}
							],
							"internalType": "struct Attestation[]",
							"name": "attestations",
							"type": "tuple[]"
						},
						{
							"internalType": "uint256[]",
							"name": "values",
							"type": "uint256[]"
						}
					],
					"name": "multiAttest",
					"outputs": [
						{
							"internalType": "bool",
							"name": "",
							"type": "bool"
						}
					],
					"stateMutability": "payable",
					"type": "function"
				},
				{
					"inputs": [
						{
							"components": [
								{
									"internalType": "bytes32",
									"name": "uid",
									"type": "bytes32"
								},
								{
									"internalType": "bytes32",
									"name": "schema",
									"type": "bytes32"
								},
								{
									"internalType": "uint64",
									"name": "time",
									"type": "uint64"
								},
								{
									"internalType": "uint64",
									"name": "expirationTime",
									"type": "uint64"
								},
								{
									"internalType": "uint64",
									"name": "revocationTime",
									"type": "uint64"
								},
								{
									"internalType": "bytes32",
									"name": "refUID",
									"type": "bytes32"
								},
								{
									"internalType": "address",
									"name": "recipient",
									"type": "address"
								},
								{
									"internalType": "address",
									"name": "attester",
									"type": "address"
								},
								{
									"internalType": "bool",
									"name": "revocable",
									"type": "bool"
								},
								{
									"internalType": "bytes",
									"name": "data",
									"type": "bytes"
								}
							],
							"internalType": "struct Attestation[]",
							"name": "attestations",
							"type": "tuple[]"
						},
						{
							"internalType": "uint256[]",
							"name": "values",
							"type": "uint256[]"
						}
					],
					"name": "multiRevoke",
					"outputs": [
						{
							"internalType": "bool",
							"name": "",
							"type": "bool"
						}
					],
					"stateMutability": "payable",
					"type": "function"
				},
				{
					"inputs": [
						{
							"components": [
								{
									"internalType": "bytes32",
									"name": "uid",
									"type": "bytes32"
								},
								{
									"internalType": "bytes32",
									"name": "schema",
									"type": "bytes32"
								},
								{
									"internalType": "uint64",
									"name": "time",
									"type": "uint64"
								},
								{
									"internalType": "uint64",
									"name": "expirationTime",
									"type": "uint64"
								},
								{
									"internalType": "uint64",
									"name": "revocationTime",
									"type": "uint64"
								},
								{
									"internalType": "bytes32",
									"name": "refUID",
									"type": "bytes32"
								},
								{
									"internalType": "address",
									"name": "recipient",
									"type": "address"
								},
								{
									"internalType": "address",
									"name": "attester",
									"type": "address"
								},
								{
									"internalType": "bool",
									"name": "revocable",
									"type": "bool"
								},
								{
									"internalType": "bytes",
									"name": "data",
									"type": "bytes"
								}
							],
							"internalType": "struct Attestation",
							"name": "attestation",
							"type": "tuple"
						}
					],
					"name": "revoke",
					"outputs": [
						{
							"internalType": "bool",
							"name": "",
							"type": "bool"
						}
					],
					"stateMutability": "payable",
					"type": "function"
				},
				{
					"inputs": [],
					"name": "version",
					"outputs": [
						{
							"internalType": "string",
							"name": "",
							"type": "string"
						}
					],
					"stateMutability": "view",
					"type": "function"
				},
				{
					"stateMutability": "payable",
					"type": "receive"
				}
			],
			"devdoc": {
				"kind": "dev",
				"methods": {
					"attest((bytes32,bytes32,uint64,uint64,uint64,bytes32,address,address,bool,bytes))": {
						"params": {
							"attestation": "The new attestation."
						},
						"returns": {
							"_0": "Whether the attestation is valid."
						}
					},
					"isPayable()": {
						"returns": {
							"_0": "Whether the resolver supports ETH transfers."
						}
					},
					"multiAttest((bytes32,bytes32,uint64,uint64,uint64,bytes32,address,address,bool,bytes)[],uint256[])": {
						"params": {
							"attestations": "The new attestations.",
							"values": "Explicit ETH amounts which were sent with each attestation."
						},
						"returns": {
							"_0": "Whether all the attestations are valid."
						}
					},
					"multiRevoke((bytes32,bytes32,uint64,uint64,uint64,bytes32,address,address,bool,bytes)[],uint256[])": {
						"params": {
							"attestations": "The existing attestations to be revoked.",
							"values": "Explicit ETH amounts which were sent with each revocation."
						},
						"returns": {
							"_0": "Whether the attestations can be revoked."
						}
					},
					"revoke((bytes32,bytes32,uint64,uint64,uint64,bytes32,address,address,bool,bytes))": {
						"params": {
							"attestation": "The existing attestation to be revoked."
						},
						"returns": {
							"_0": "Whether the attestation can be revoked."
						}
					},
					"version()": {
						"returns": {
							"_0": "Semver contract version as a string."
						}
					}
				},
				"title": "A schema resolver that checks whether the sender is the owner of the contract behind attestation.recipient.",
				"version": 1
			},
			"evm": {
				"assembly": "    /* \"resolver.sol\":344:3218  contract OwnerRecipientResolver is SchemaResolver {... */\n  mstore(0x40, 0x0100)\n    /* \"resolver.sol\":400:444  constructor(IEAS eas) SchemaResolver(eas) {} */\n  callvalue\n  dup1\n  iszero\n  tag_1\n  jumpi\n  revert(0x00, 0x00)\ntag_1:\n  pop\n  mload(0x40)\n  sub(codesize, bytecodeSize)\n  dup1\n  bytecodeSize\n  dup4\n  codecopy\n  dup2\n  dup2\n  add\n  0x40\n  mstore\n  dup2\n  add\n  swap1\n  tag_2\n  swap2\n  swap1\n  tag_3\n  jump\t// in\ntag_2:\n    /* \"resolver.sol\":437:440  eas */\n  dup1\n    /* \"EAS/SchemaResolver.sol\":676:677  1 */\n  0x01\n    /* \"EAS/SchemaResolver.sol\":679:680  3 */\n  0x03\n    /* \"EAS/SchemaResolver.sol\":682:683  0 */\n  0x00\n    /* \"EAS/Semver.sol\":768:773  major */\n  dup3\n    /* \"EAS/Semver.sol\":759:773  _major = major */\n  0x80\n  dup2\n  dup2\n  mstore\n  pop\n  pop\n    /* \"EAS/Semver.sol\":792:797  minor */\n  dup2\n    /* \"EAS/Semver.sol\":783:797  _minor = minor */\n  0xa0\n  dup2\n  dup2\n  mstore\n  pop\n  pop\n    /* \"EAS/Semver.sol\":816:821  patch */\n  dup1\n    /* \"EAS/Semver.sol\":807:821  _patch = patch */\n  0xc0\n  dup2\n  dup2\n  mstore\n  pop\n  pop\n    /* \"EAS/Semver.sol\":692:828  constructor(uint256 major, uint256 minor, uint256 patch) {... */\n  pop\n  pop\n  pop\n    /* \"EAS/SchemaResolver.sol\":723:724  0 */\n  0x00\n    /* \"EAS/SchemaResolver.sol\":699:725  address(eas) == address(0) */\n  0xffffffffffffffffffffffffffffffffffffffff\n  and\n    /* \"EAS/SchemaResolver.sol\":707:710  eas */\n  dup2\n    /* \"EAS/SchemaResolver.sol\":699:725  address(eas) == address(0) */\n  0xffffffffffffffffffffffffffffffffffffffff\n  and\n  sub\n    /* \"EAS/SchemaResolver.sol\":695:771  if (address(eas) == address(0)) {... */\n  tag_9\n  jumpi\n    /* \"EAS/SchemaResolver.sol\":748:760  InvalidEAS() */\n  mload(0x40)\n  0x83780ffe00000000000000000000000000000000000000000000000000000000\n  dup2\n  mstore\n  0x04\n  add\n  mload(0x40)\n  dup1\n  swap2\n  sub\n  swap1\n  revert\n    /* \"EAS/SchemaResolver.sol\":695:771  if (address(eas) == address(0)) {... */\ntag_9:\n    /* \"EAS/SchemaResolver.sol\":788:791  eas */\n  dup1\n    /* \"EAS/SchemaResolver.sol\":781:791  _eas = eas */\n  0xffffffffffffffffffffffffffffffffffffffff\n  and\n  0xe0\n  dup2\n  0xffffffffffffffffffffffffffffffffffffffff\n  and\n  dup2\n  mstore\n  pop\n  pop\n    /* \"EAS/SchemaResolver.sol\":647:798  constructor(IEAS eas) Semver(1, 3, 0) {... */\n  pop\n    /* \"resolver.sol\":400:444  constructor(IEAS eas) SchemaResolver(eas) {} */\n  pop\n    /* \"resolver.sol\":344:3218  contract OwnerRecipientResolver is SchemaResolver {... */\n  jump(tag_11)\n    /* \"#utility.yul\":88:205   */\ntag_13:\n    /* \"#utility.yul\":197:198   */\n  0x00\n    /* \"#utility.yul\":194:195   */\n  0x00\n    /* \"#utility.yul\":187:199   */\n  revert\n    /* \"#utility.yul\":334:460   */\ntag_15:\n    /* \"#utility.yul\":371:378   */\n  0x00\n    /* \"#utility.yul\":411:453   */\n  0xffffffffffffffffffffffffffffffffffffffff\n    /* \"#utility.yul\":404:409   */\n  dup3\n    /* \"#utility.yul\":400:454   */\n  and\n    /* \"#utility.yul\":389:454   */\n  swap1\n  pop\n    /* \"#utility.yul\":334:460   */\n  swap2\n  swap1\n  pop\n  jump\t// out\n    /* \"#utility.yul\":466:562   */\ntag_16:\n    /* \"#utility.yul\":503:510   */\n  0x00\n    /* \"#utility.yul\":532:556   */\n  tag_26\n    /* \"#utility.yul\":550:555   */\n  dup3\n    /* \"#utility.yul\":532:556   */\n  tag_15\n  jump\t// in\ntag_26:\n    /* \"#utility.yul\":521:556   */\n  swap1\n  pop\n    /* \"#utility.yul\":466:562   */\n  swap2\n  swap1\n  pop\n  jump\t// out\n    /* \"#utility.yul\":568:677   */\ntag_17:\n    /* \"#utility.yul\":618:625   */\n  0x00\n    /* \"#utility.yul\":647:671   */\n  tag_28\n    /* \"#utility.yul\":665:670   */\n  dup3\n    /* \"#utility.yul\":647:671   */\n  tag_16\n  jump\t// in\ntag_28:\n    /* \"#utility.yul\":636:671   */\n  swap1\n  pop\n    /* \"#utility.yul\":568:677   */\n  swap2\n  swap1\n  pop\n  jump\t// out\n    /* \"#utility.yul\":683:831   */\ntag_18:\n    /* \"#utility.yul\":769:806   */\n  tag_30\n    /* \"#utility.yul\":800:805   */\n  dup2\n    /* \"#utility.yul\":769:806   */\n  tag_17\n  jump\t// in\ntag_30:\n    /* \"#utility.yul\":762:767   */\n  dup2\n    /* \"#utility.yul\":759:807   */\n  eq\n    /* \"#utility.yul\":749:825   */\n  tag_31\n  jumpi\n    /* \"#utility.yul\":821:822   */\n  0x00\n    /* \"#utility.yul\":818:819   */\n  0x00\n    /* \"#utility.yul\":811:823   */\n  revert\n    /* \"#utility.yul\":749:825   */\ntag_31:\n    /* \"#utility.yul\":683:831   */\n  pop\n  jump\t// out\n    /* \"#utility.yul\":837:1006   */\ntag_19:\n    /* \"#utility.yul\":907:912   */\n  0x00\n    /* \"#utility.yul\":938:944   */\n  dup2\n    /* \"#utility.yul\":932:945   */\n  mload\n    /* \"#utility.yul\":923:945   */\n  swap1\n  pop\n    /* \"#utility.yul\":954:1000   */\n  tag_33\n    /* \"#utility.yul\":994:999   */\n  dup2\n    /* \"#utility.yul\":954:1000   */\n  tag_18\n  jump\t// in\ntag_33:\n    /* \"#utility.yul\":837:1006   */\n  swap3\n  swap2\n  pop\n  pop\n  jump\t// out\n    /* \"#utility.yul\":1012:1389   */\ntag_3:\n    /* \"#utility.yul\":1095:1101   */\n  0x00\n    /* \"#utility.yul\":1144:1146   */\n  0x20\n    /* \"#utility.yul\":1132:1141   */\n  dup3\n    /* \"#utility.yul\":1123:1130   */\n  dup5\n    /* \"#utility.yul\":1119:1142   */\n  sub\n    /* \"#utility.yul\":1115:1147   */\n  slt\n    /* \"#utility.yul\":1112:1231   */\n  iszero\n  tag_35\n  jumpi\n    /* \"#utility.yul\":1150:1229   */\n  tag_36\n  tag_13\n  jump\t// in\ntag_36:\n    /* \"#utility.yul\":1112:1231   */\ntag_35:\n    /* \"#utility.yul\":1270:1271   */\n  0x00\n    /* \"#utility.yul\":1295:1372   */\n  tag_37\n    /* \"#utility.yul\":1364:1371   */\n  dup5\n    /* \"#utility.yul\":1355:1361   */\n  dup3\n    /* \"#utility.yul\":1344:1353   */\n  dup6\n    /* \"#utility.yul\":1340:1362   */\n  add\n    /* \"#utility.yul\":1295:1372   */\n  tag_19\n  jump\t// in\ntag_37:\n    /* \"#utility.yul\":1285:1372   */\n  swap2\n  pop\n    /* \"#utility.yul\":1241:1382   */\n  pop\n    /* \"#utility.yul\":1012:1389   */\n  swap3\n  swap2\n  pop\n  pop\n  jump\t// out\n    /* \"resolver.sol\":344:3218  contract OwnerRecipientResolver is SchemaResolver {... */\ntag_11:\n  mload(0x80)\n  mload(0xa0)\n  mload(0xc0)\n  mload(0xe0)\n  codecopy(0x00, dataOffset(sub_0), dataSize(sub_0))\n  0x00\n  assignImmutable(\"0x2259d879c3ddbdea21c969f6c449c00063955c875b82cae8e1ca0111b45714a4\")\n  0x00\n  assignImmutable(\"0x23c684a78f9820665a20ed31bf386897191055b65494dcfb66ed5fda9b5cd46e\")\n  0x00\n  assignImmutable(\"0x7de0743527792565740abce014f44dd9e71031f5fd0bd2000c0f94c4df62d2aa\")\n  0x00\n  assignImmutable(\"0xe585060c6ad225b52739efa59556a11848af44f46a7f6ef69d0aef037ade7020\")\n  return(0x00, dataSize(sub_0))\nstop\n\nsub_0: assembly {\n        /* \"resolver.sol\":344:3218  contract OwnerRecipientResolver is SchemaResolver {... */\n      mstore(0x40, 0x80)\n      jumpi(tag_1, lt(calldatasize, 0x04))\n      shr(0xe0, calldataload(0x00))\n      dup1\n      0x54fd4d50\n      eq\n      tag_3\n      jumpi\n      dup1\n      0x88e5b2d9\n      eq\n      tag_4\n      jumpi\n      dup1\n      0x91db0b7e\n      eq\n      tag_5\n      jumpi\n      dup1\n      0xce46e046\n      eq\n      tag_6\n      jumpi\n      dup1\n      0xe49617e1\n      eq\n      tag_7\n      jumpi\n      dup1\n      0xe60c3505\n      eq\n      tag_8\n      jumpi\n      jump(tag_2)\n    tag_1:\n      jumpi(tag_2, calldatasize)\n        /* \"EAS/SchemaResolver.sol\":1140:1151  isPayable() */\n      tag_11\n        /* \"EAS/SchemaResolver.sol\":1140:1149  isPayable */\n      tag_12\n        /* \"EAS/SchemaResolver.sol\":1140:1151  isPayable() */\n      jump\t// in\n    tag_11:\n        /* \"EAS/SchemaResolver.sol\":1135:1197  if (!isPayable()) {... */\n      tag_13\n      jumpi\n        /* \"EAS/SchemaResolver.sol\":1174:1186  NotPayable() */\n      mload(0x40)\n      0x1574f9f300000000000000000000000000000000000000000000000000000000\n      dup2\n      mstore\n      0x04\n      add\n      mload(0x40)\n      dup1\n      swap2\n      sub\n      swap1\n      revert\n        /* \"EAS/SchemaResolver.sol\":1135:1197  if (!isPayable()) {... */\n    tag_13:\n        /* \"resolver.sol\":344:3218  contract OwnerRecipientResolver is SchemaResolver {... */\n      stop\n    tag_2:\n      revert(0x00, 0x00)\n        /* \"EAS/Semver.sol\":945:1180  function version() external view returns (string memory) {... */\n    tag_3:\n      callvalue\n      dup1\n      iszero\n      tag_14\n      jumpi\n      revert(0x00, 0x00)\n    tag_14:\n      pop\n      tag_15\n      tag_16\n      jump\t// in\n    tag_15:\n      mload(0x40)\n      tag_17\n      swap2\n      swap1\n      tag_18\n      jump\t// in\n    tag_17:\n      mload(0x40)\n      dup1\n      swap2\n      sub\n      swap1\n      return\n        /* \"EAS/SchemaResolver.sol\":3124:4584  function multiRevoke(... */\n    tag_4:\n      tag_19\n      0x04\n      dup1\n      calldatasize\n      sub\n      dup2\n      add\n      swap1\n      tag_20\n      swap2\n      swap1\n      tag_21\n      jump\t// in\n    tag_20:\n      tag_22\n      jump\t// in\n    tag_19:\n      mload(0x40)\n      tag_23\n      swap2\n      swap1\n      tag_24\n      jump\t// in\n    tag_23:\n      mload(0x40)\n      dup1\n      swap2\n      sub\n      swap1\n      return\n        /* \"EAS/SchemaResolver.sol\":1433:2894  function multiAttest(... */\n    tag_5:\n      tag_25\n      0x04\n      dup1\n      calldatasize\n      sub\n      dup2\n      add\n      swap1\n      tag_26\n      swap2\n      swap1\n      tag_21\n      jump\t// in\n    tag_26:\n      tag_27\n      jump\t// in\n    tag_25:\n      mload(0x40)\n      tag_28\n      swap2\n      swap1\n      tag_24\n      jump\t// in\n    tag_28:\n      mload(0x40)\n      dup1\n      swap2\n      sub\n      swap1\n      return\n        /* \"EAS/SchemaResolver.sol\":972:1057  function isPayable() public pure virtual returns (bool) {... */\n    tag_6:\n      callvalue\n      dup1\n      iszero\n      tag_29\n      jumpi\n      revert(0x00, 0x00)\n    tag_29:\n      pop\n      tag_30\n      tag_12\n      jump\t// in\n    tag_30:\n      mload(0x40)\n      tag_31\n      swap2\n      swap1\n      tag_24\n      jump\t// in\n    tag_31:\n      mload(0x40)\n      dup1\n      swap2\n      sub\n      swap1\n      return\n        /* \"EAS/SchemaResolver.sol\":2936:3082  function revoke(Attestation calldata attestation) external payable onlyEAS returns (bool) {... */\n    tag_7:\n      tag_32\n      0x04\n      dup1\n      calldatasize\n      sub\n      dup2\n      add\n      swap1\n      tag_33\n      swap2\n      swap1\n      tag_34\n      jump\t// in\n    tag_33:\n      tag_35\n      jump\t// in\n    tag_32:\n      mload(0x40)\n      tag_36\n      swap2\n      swap1\n      tag_24\n      jump\t// in\n    tag_36:\n      mload(0x40)\n      dup1\n      swap2\n      sub\n      swap1\n      return\n        /* \"EAS/SchemaResolver.sol\":1245:1391  function attest(Attestation calldata attestation) external payable onlyEAS returns (bool) {... */\n    tag_8:\n      tag_37\n      0x04\n      dup1\n      calldatasize\n      sub\n      dup2\n      add\n      swap1\n      tag_38\n      swap2\n      swap1\n      tag_34\n      jump\t// in\n    tag_38:\n      tag_39\n      jump\t// in\n    tag_37:\n      mload(0x40)\n      tag_40\n      swap2\n      swap1\n      tag_24\n      jump\t// in\n    tag_40:\n      mload(0x40)\n      dup1\n      swap2\n      sub\n      swap1\n      return\n        /* \"EAS/SchemaResolver.sol\":972:1057  function isPayable() public pure virtual returns (bool) {... */\n    tag_12:\n        /* \"EAS/SchemaResolver.sol\":1022:1026  bool */\n      0x00\n        /* \"EAS/SchemaResolver.sol\":1045:1050  false */\n      0x00\n        /* \"EAS/SchemaResolver.sol\":1038:1050  return false */\n      swap1\n      pop\n        /* \"EAS/SchemaResolver.sol\":972:1057  function isPayable() public pure virtual returns (bool) {... */\n      swap1\n      jump\t// out\n        /* \"EAS/Semver.sol\":945:1180  function version() external view returns (string memory) {... */\n    tag_16:\n        /* \"EAS/Semver.sol\":987:1000  string memory */\n      0x60\n        /* \"EAS/Semver.sol\":1072:1096  Strings.toString(_major) */\n      tag_43\n        /* \"EAS/Semver.sol\":1089:1095  _major */\n      immutable(\"0xe585060c6ad225b52739efa59556a11848af44f46a7f6ef69d0aef037ade7020\")\n        /* \"EAS/Semver.sol\":1072:1088  Strings.toString */\n      tag_44\n        /* \"EAS/Semver.sol\":1072:1096  Strings.toString(_major) */\n      jump\t// in\n    tag_43:\n        /* \"EAS/Semver.sol\":1103:1127  Strings.toString(_minor) */\n      tag_45\n        /* \"EAS/Semver.sol\":1120:1126  _minor */\n      immutable(\"0x7de0743527792565740abce014f44dd9e71031f5fd0bd2000c0f94c4df62d2aa\")\n        /* \"EAS/Semver.sol\":1103:1119  Strings.toString */\n      tag_44\n        /* \"EAS/Semver.sol\":1103:1127  Strings.toString(_minor) */\n      jump\t// in\n    tag_45:\n        /* \"EAS/Semver.sol\":1134:1158  Strings.toString(_patch) */\n      tag_46\n        /* \"EAS/Semver.sol\":1151:1157  _patch */\n      immutable(\"0x23c684a78f9820665a20ed31bf386897191055b65494dcfb66ed5fda9b5cd46e\")\n        /* \"EAS/Semver.sol\":1134:1150  Strings.toString */\n      tag_44\n        /* \"EAS/Semver.sol\":1134:1158  Strings.toString(_patch) */\n      jump\t// in\n    tag_46:\n        /* \"EAS/Semver.sol\":1055:1159  abi.encodePacked(Strings.toString(_major), \".\", Strings.toString(_minor), \".\", Strings.toString(_patch)) */\n      add(0x20, mload(0x40))\n      tag_47\n      swap4\n      swap3\n      swap2\n      swap1\n      tag_48\n      jump\t// in\n    tag_47:\n      mload(0x40)\n      0x20\n      dup2\n      dup4\n      sub\n      sub\n      dup2\n      mstore\n      swap1\n      0x40\n      mstore\n        /* \"EAS/Semver.sol\":1012:1173  return... */\n      swap1\n      pop\n        /* \"EAS/Semver.sol\":945:1180  function version() external view returns (string memory) {... */\n      swap1\n      jump\t// out\n        /* \"EAS/SchemaResolver.sol\":3124:4584  function multiRevoke(... */\n    tag_22:\n        /* \"EAS/SchemaResolver.sol\":3265:3269  bool */\n      0x00\n        /* \"EAS/SchemaResolver.sol\":901:911  _onlyEAS() */\n      tag_50\n        /* \"EAS/SchemaResolver.sol\":901:909  _onlyEAS */\n      tag_51\n        /* \"EAS/SchemaResolver.sol\":901:911  _onlyEAS() */\n      jump\t// in\n    tag_50:\n        /* \"EAS/SchemaResolver.sol\":3281:3295  uint256 length */\n      0x00\n        /* \"EAS/SchemaResolver.sol\":3298:3310  attestations */\n      dup6\n      dup6\n        /* \"EAS/SchemaResolver.sol\":3298:3317  attestations.length */\n      swap1\n      pop\n        /* \"EAS/SchemaResolver.sol\":3281:3317  uint256 length = attestations.length */\n      swap1\n      pop\n        /* \"EAS/SchemaResolver.sol\":3341:3347  values */\n      dup4\n      dup4\n        /* \"EAS/SchemaResolver.sol\":3341:3354  values.length */\n      swap1\n      pop\n        /* \"EAS/SchemaResolver.sol\":3331:3337  length */\n      dup2\n        /* \"EAS/SchemaResolver.sol\":3331:3354  length != values.length */\n      eq\n        /* \"EAS/SchemaResolver.sol\":3327:3403  if (length != values.length) {... */\n      tag_53\n      jumpi\n        /* \"EAS/SchemaResolver.sol\":3377:3392  InvalidLength() */\n      mload(0x40)\n      0x947d5a8400000000000000000000000000000000000000000000000000000000\n      dup2\n      mstore\n      0x04\n      add\n      mload(0x40)\n      dup1\n      swap2\n      sub\n      swap1\n      revert\n        /* \"EAS/SchemaResolver.sol\":3327:3403  if (length != values.length) {... */\n    tag_53:\n        /* \"EAS/SchemaResolver.sol\":3810:3832  uint256 remainingValue */\n      0x00\n        /* \"EAS/SchemaResolver.sol\":3835:3844  msg.value */\n      callvalue\n        /* \"EAS/SchemaResolver.sol\":3810:3844  uint256 remainingValue = msg.value */\n      swap1\n      pop\n        /* \"EAS/SchemaResolver.sol\":3860:3869  uint256 i */\n      0x00\n        /* \"EAS/SchemaResolver.sol\":3872:3873  0 */\n      0x00\n        /* \"EAS/SchemaResolver.sol\":3860:3873  uint256 i = 0 */\n      swap1\n      pop\n        /* \"EAS/SchemaResolver.sol\":3855:4556  for (uint256 i = 0; i < length; i = uncheckedInc(i)) {... */\n    tag_54:\n        /* \"EAS/SchemaResolver.sol\":3879:3885  length */\n      dup3\n        /* \"EAS/SchemaResolver.sol\":3875:3876  i */\n      dup2\n        /* \"EAS/SchemaResolver.sol\":3875:3885  i < length */\n      lt\n        /* \"EAS/SchemaResolver.sol\":3855:4556  for (uint256 i = 0; i < length; i = uncheckedInc(i)) {... */\n      iszero\n      tag_55\n      jumpi\n        /* \"EAS/SchemaResolver.sol\":4012:4025  uint256 value */\n      0x00\n        /* \"EAS/SchemaResolver.sol\":4028:4034  values */\n      dup7\n      dup7\n        /* \"EAS/SchemaResolver.sol\":4035:4036  i */\n      dup4\n        /* \"EAS/SchemaResolver.sol\":4028:4037  values[i] */\n      dup2\n      dup2\n      lt\n      tag_57\n      jumpi\n      tag_58\n      tag_59\n      jump\t// in\n    tag_58:\n    tag_57:\n      swap1\n      pop\n      0x20\n      mul\n      add\n      calldataload\n        /* \"EAS/SchemaResolver.sol\":4012:4037  uint256 value = values[i] */\n      swap1\n      pop\n        /* \"EAS/SchemaResolver.sol\":4063:4077  remainingValue */\n      dup3\n        /* \"EAS/SchemaResolver.sol\":4055:4060  value */\n      dup2\n        /* \"EAS/SchemaResolver.sol\":4055:4077  value > remainingValue */\n      gt\n        /* \"EAS/SchemaResolver.sol\":4051:4138  if (value > remainingValue) {... */\n      iszero\n      tag_60\n      jumpi\n        /* \"EAS/SchemaResolver.sol\":4104:4123  InsufficientValue() */\n      mload(0x40)\n      0x1101129400000000000000000000000000000000000000000000000000000000\n      dup2\n      mstore\n      0x04\n      add\n      mload(0x40)\n      dup1\n      swap2\n      sub\n      swap1\n      revert\n        /* \"EAS/SchemaResolver.sol\":4051:4138  if (value > remainingValue) {... */\n    tag_60:\n        /* \"EAS/SchemaResolver.sol\":4266:4298  onRevoke(attestations[i], value) */\n      tag_61\n        /* \"EAS/SchemaResolver.sol\":4275:4287  attestations */\n      dup10\n      dup10\n        /* \"EAS/SchemaResolver.sol\":4288:4289  i */\n      dup5\n        /* \"EAS/SchemaResolver.sol\":4275:4290  attestations[i] */\n      dup2\n      dup2\n      lt\n      tag_62\n      jumpi\n      tag_63\n      tag_59\n      jump\t// in\n    tag_63:\n    tag_62:\n      swap1\n      pop\n      0x20\n      mul\n      dup2\n      add\n      swap1\n      tag_64\n      swap2\n      swap1\n      tag_65\n      jump\t// in\n    tag_64:\n        /* \"EAS/SchemaResolver.sol\":4292:4297  value */\n      dup3\n        /* \"EAS/SchemaResolver.sol\":4266:4274  onRevoke */\n      tag_66\n        /* \"EAS/SchemaResolver.sol\":4266:4298  onRevoke(attestations[i], value) */\n      jump\t// in\n    tag_61:\n        /* \"EAS/SchemaResolver.sol\":4261:4345  if (!onRevoke(attestations[i], value)) {... */\n      tag_67\n      jumpi\n        /* \"EAS/SchemaResolver.sol\":4325:4330  false */\n      0x00\n        /* \"EAS/SchemaResolver.sol\":4318:4330  return false */\n      swap5\n      pop\n      pop\n      pop\n      pop\n      pop\n      jump(tag_52)\n        /* \"EAS/SchemaResolver.sol\":4261:4345  if (!onRevoke(attestations[i], value)) {... */\n    tag_67:\n        /* \"EAS/SchemaResolver.sol\":4526:4531  value */\n      dup1\n        /* \"EAS/SchemaResolver.sol\":4508:4531  remainingValue -= value */\n      dup4\n      sub\n      swap3\n      pop\n        /* \"EAS/SchemaResolver.sol\":3908:4556  {... */\n      pop\n        /* \"EAS/SchemaResolver.sol\":3891:3906  uncheckedInc(i) */\n      tag_68\n        /* \"EAS/SchemaResolver.sol\":3904:3905  i */\n      dup2\n        /* \"EAS/SchemaResolver.sol\":3891:3903  uncheckedInc */\n      tag_69\n        /* \"EAS/SchemaResolver.sol\":3891:3906  uncheckedInc(i) */\n      jump\t// in\n    tag_68:\n        /* \"EAS/SchemaResolver.sol\":3887:3906  i = uncheckedInc(i) */\n      swap1\n      pop\n        /* \"EAS/SchemaResolver.sol\":3855:4556  for (uint256 i = 0; i < length; i = uncheckedInc(i)) {... */\n      jump(tag_54)\n    tag_55:\n      pop\n        /* \"EAS/SchemaResolver.sol\":4573:4577  true */\n      0x01\n        /* \"EAS/SchemaResolver.sol\":4566:4577  return true */\n      swap3\n      pop\n      pop\n      pop\n        /* \"EAS/SchemaResolver.sol\":922:923  _ */\n    tag_52:\n        /* \"EAS/SchemaResolver.sol\":3124:4584  function multiRevoke(... */\n      swap5\n      swap4\n      pop\n      pop\n      pop\n      pop\n      jump\t// out\n        /* \"EAS/SchemaResolver.sol\":1433:2894  function multiAttest(... */\n    tag_27:\n        /* \"EAS/SchemaResolver.sol\":1574:1578  bool */\n      0x00\n        /* \"EAS/SchemaResolver.sol\":901:911  _onlyEAS() */\n      tag_71\n        /* \"EAS/SchemaResolver.sol\":901:909  _onlyEAS */\n      tag_51\n        /* \"EAS/SchemaResolver.sol\":901:911  _onlyEAS() */\n      jump\t// in\n    tag_71:\n        /* \"EAS/SchemaResolver.sol\":1590:1604  uint256 length */\n      0x00\n        /* \"EAS/SchemaResolver.sol\":1607:1619  attestations */\n      dup6\n      dup6\n        /* \"EAS/SchemaResolver.sol\":1607:1626  attestations.length */\n      swap1\n      pop\n        /* \"EAS/SchemaResolver.sol\":1590:1626  uint256 length = attestations.length */\n      swap1\n      pop\n        /* \"EAS/SchemaResolver.sol\":1650:1656  values */\n      dup4\n      dup4\n        /* \"EAS/SchemaResolver.sol\":1650:1663  values.length */\n      swap1\n      pop\n        /* \"EAS/SchemaResolver.sol\":1640:1646  length */\n      dup2\n        /* \"EAS/SchemaResolver.sol\":1640:1663  length != values.length */\n      eq\n        /* \"EAS/SchemaResolver.sol\":1636:1712  if (length != values.length) {... */\n      tag_73\n      jumpi\n        /* \"EAS/SchemaResolver.sol\":1686:1701  InvalidLength() */\n      mload(0x40)\n      0x947d5a8400000000000000000000000000000000000000000000000000000000\n      dup2\n      mstore\n      0x04\n      add\n      mload(0x40)\n      dup1\n      swap2\n      sub\n      swap1\n      revert\n        /* \"EAS/SchemaResolver.sol\":1636:1712  if (length != values.length) {... */\n    tag_73:\n        /* \"EAS/SchemaResolver.sol\":2119:2141  uint256 remainingValue */\n      0x00\n        /* \"EAS/SchemaResolver.sol\":2144:2153  msg.value */\n      callvalue\n        /* \"EAS/SchemaResolver.sol\":2119:2153  uint256 remainingValue = msg.value */\n      swap1\n      pop\n        /* \"EAS/SchemaResolver.sol\":2169:2178  uint256 i */\n      0x00\n        /* \"EAS/SchemaResolver.sol\":2181:2182  0 */\n      0x00\n        /* \"EAS/SchemaResolver.sol\":2169:2182  uint256 i = 0 */\n      swap1\n      pop\n        /* \"EAS/SchemaResolver.sol\":2164:2866  for (uint256 i = 0; i < length; i = uncheckedInc(i)) {... */\n    tag_74:\n        /* \"EAS/SchemaResolver.sol\":2188:2194  length */\n      dup3\n        /* \"EAS/SchemaResolver.sol\":2184:2185  i */\n      dup2\n        /* \"EAS/SchemaResolver.sol\":2184:2194  i < length */\n      lt\n        /* \"EAS/SchemaResolver.sol\":2164:2866  for (uint256 i = 0; i < length; i = uncheckedInc(i)) {... */\n      iszero\n      tag_75\n      jumpi\n        /* \"EAS/SchemaResolver.sol\":2321:2334  uint256 value */\n      0x00\n        /* \"EAS/SchemaResolver.sol\":2337:2343  values */\n      dup7\n      dup7\n        /* \"EAS/SchemaResolver.sol\":2344:2345  i */\n      dup4\n        /* \"EAS/SchemaResolver.sol\":2337:2346  values[i] */\n      dup2\n      dup2\n      lt\n      tag_77\n      jumpi\n      tag_78\n      tag_59\n      jump\t// in\n    tag_78:\n    tag_77:\n      swap1\n      pop\n      0x20\n      mul\n      add\n      calldataload\n        /* \"EAS/SchemaResolver.sol\":2321:2346  uint256 value = values[i] */\n      swap1\n      pop\n        /* \"EAS/SchemaResolver.sol\":2372:2386  remainingValue */\n      dup3\n        /* \"EAS/SchemaResolver.sol\":2364:2369  value */\n      dup2\n        /* \"EAS/SchemaResolver.sol\":2364:2386  value > remainingValue */\n      gt\n        /* \"EAS/SchemaResolver.sol\":2360:2447  if (value > remainingValue) {... */\n      iszero\n      tag_79\n      jumpi\n        /* \"EAS/SchemaResolver.sol\":2413:2432  InsufficientValue() */\n      mload(0x40)\n      0x1101129400000000000000000000000000000000000000000000000000000000\n      dup2\n      mstore\n      0x04\n      add\n      mload(0x40)\n      dup1\n      swap2\n      sub\n      swap1\n      revert\n        /* \"EAS/SchemaResolver.sol\":2360:2447  if (value > remainingValue) {... */\n    tag_79:\n        /* \"EAS/SchemaResolver.sol\":2576:2608  onAttest(attestations[i], value) */\n      tag_80\n        /* \"EAS/SchemaResolver.sol\":2585:2597  attestations */\n      dup10\n      dup10\n        /* \"EAS/SchemaResolver.sol\":2598:2599  i */\n      dup5\n        /* \"EAS/SchemaResolver.sol\":2585:2600  attestations[i] */\n      dup2\n      dup2\n      lt\n      tag_81\n      jumpi\n      tag_82\n      tag_59\n      jump\t// in\n    tag_82:\n    tag_81:\n      swap1\n      pop\n      0x20\n      mul\n      dup2\n      add\n      swap1\n      tag_83\n      swap2\n      swap1\n      tag_65\n      jump\t// in\n    tag_83:\n        /* \"EAS/SchemaResolver.sol\":2602:2607  value */\n      dup3\n        /* \"EAS/SchemaResolver.sol\":2576:2584  onAttest */\n      tag_84\n        /* \"EAS/SchemaResolver.sol\":2576:2608  onAttest(attestations[i], value) */\n      jump\t// in\n    tag_80:\n        /* \"EAS/SchemaResolver.sol\":2571:2655  if (!onAttest(attestations[i], value)) {... */\n      tag_85\n      jumpi\n        /* \"EAS/SchemaResolver.sol\":2635:2640  false */\n      0x00\n        /* \"EAS/SchemaResolver.sol\":2628:2640  return false */\n      swap5\n      pop\n      pop\n      pop\n      pop\n      pop\n      jump(tag_72)\n        /* \"EAS/SchemaResolver.sol\":2571:2655  if (!onAttest(attestations[i], value)) {... */\n    tag_85:\n        /* \"EAS/SchemaResolver.sol\":2836:2841  value */\n      dup1\n        /* \"EAS/SchemaResolver.sol\":2818:2841  remainingValue -= value */\n      dup4\n      sub\n      swap3\n      pop\n        /* \"EAS/SchemaResolver.sol\":2217:2866  {... */\n      pop\n        /* \"EAS/SchemaResolver.sol\":2200:2215  uncheckedInc(i) */\n      tag_86\n        /* \"EAS/SchemaResolver.sol\":2213:2214  i */\n      dup2\n        /* \"EAS/SchemaResolver.sol\":2200:2212  uncheckedInc */\n      tag_69\n        /* \"EAS/SchemaResolver.sol\":2200:2215  uncheckedInc(i) */\n      jump\t// in\n    tag_86:\n        /* \"EAS/SchemaResolver.sol\":2196:2215  i = uncheckedInc(i) */\n      swap1\n      pop\n        /* \"EAS/SchemaResolver.sol\":2164:2866  for (uint256 i = 0; i < length; i = uncheckedInc(i)) {... */\n      jump(tag_74)\n    tag_75:\n      pop\n        /* \"EAS/SchemaResolver.sol\":2883:2887  true */\n      0x01\n        /* \"EAS/SchemaResolver.sol\":2876:2887  return true */\n      swap3\n      pop\n      pop\n      pop\n        /* \"EAS/SchemaResolver.sol\":922:923  _ */\n    tag_72:\n        /* \"EAS/SchemaResolver.sol\":1433:2894  function multiAttest(... */\n      swap5\n      swap4\n      pop\n      pop\n      pop\n      pop\n      jump\t// out\n        /* \"EAS/SchemaResolver.sol\":2936:3082  function revoke(Attestation calldata attestation) external payable onlyEAS returns (bool) {... */\n    tag_35:\n        /* \"EAS/SchemaResolver.sol\":3020:3024  bool */\n      0x00\n        /* \"EAS/SchemaResolver.sol\":901:911  _onlyEAS() */\n      tag_88\n        /* \"EAS/SchemaResolver.sol\":901:909  _onlyEAS */\n      tag_51\n        /* \"EAS/SchemaResolver.sol\":901:911  _onlyEAS() */\n      jump\t// in\n    tag_88:\n        /* \"EAS/SchemaResolver.sol\":3043:3075  onRevoke(attestation, msg.value) */\n      tag_90\n        /* \"EAS/SchemaResolver.sol\":3052:3063  attestation */\n      dup3\n        /* \"EAS/SchemaResolver.sol\":3065:3074  msg.value */\n      callvalue\n        /* \"EAS/SchemaResolver.sol\":3043:3051  onRevoke */\n      tag_66\n        /* \"EAS/SchemaResolver.sol\":3043:3075  onRevoke(attestation, msg.value) */\n      jump\t// in\n    tag_90:\n        /* \"EAS/SchemaResolver.sol\":3036:3075  return onRevoke(attestation, msg.value) */\n      swap1\n      pop\n        /* \"EAS/SchemaResolver.sol\":2936:3082  function revoke(Attestation calldata attestation) external payable onlyEAS returns (bool) {... */\n      swap2\n      swap1\n      pop\n      jump\t// out\n        /* \"EAS/SchemaResolver.sol\":1245:1391  function attest(Attestation calldata attestation) external payable onlyEAS returns (bool) {... */\n    tag_39:\n        /* \"EAS/SchemaResolver.sol\":1329:1333  bool */\n      0x00\n        /* \"EAS/SchemaResolver.sol\":901:911  _onlyEAS() */\n      tag_92\n        /* \"EAS/SchemaResolver.sol\":901:909  _onlyEAS */\n      tag_51\n        /* \"EAS/SchemaResolver.sol\":901:911  _onlyEAS() */\n      jump\t// in\n    tag_92:\n        /* \"EAS/SchemaResolver.sol\":1352:1384  onAttest(attestation, msg.value) */\n      tag_94\n        /* \"EAS/SchemaResolver.sol\":1361:1372  attestation */\n      dup3\n        /* \"EAS/SchemaResolver.sol\":1374:1383  msg.value */\n      callvalue\n        /* \"EAS/SchemaResolver.sol\":1352:1360  onAttest */\n      tag_84\n        /* \"EAS/SchemaResolver.sol\":1352:1384  onAttest(attestation, msg.value) */\n      jump\t// in\n    tag_94:\n        /* \"EAS/SchemaResolver.sol\":1345:1384  return onAttest(attestation, msg.value) */\n      swap1\n      pop\n        /* \"EAS/SchemaResolver.sol\":1245:1391  function attest(Attestation calldata attestation) external payable onlyEAS returns (bool) {... */\n      swap2\n      swap1\n      pop\n      jump\t// out\n        /* \"@openzeppelin/contracts/utils/Strings.sol\":637:1269  function toString(uint256 value) internal pure returns (string memory) {... */\n    tag_44:\n        /* \"@openzeppelin/contracts/utils/Strings.sol\":693:706  string memory */\n      0x60\n        /* \"@openzeppelin/contracts/utils/Strings.sol\":742:756  uint256 length */\n      0x00\n        /* \"@openzeppelin/contracts/utils/Strings.sol\":779:780  1 */\n      0x01\n        /* \"@openzeppelin/contracts/utils/Strings.sol\":759:776  Math.log10(value) */\n      tag_96\n        /* \"@openzeppelin/contracts/utils/Strings.sol\":770:775  value */\n      dup5\n        /* \"@openzeppelin/contracts/utils/Strings.sol\":759:769  Math.log10 */\n      tag_97\n        /* \"@openzeppelin/contracts/utils/Strings.sol\":759:776  Math.log10(value) */\n      jump\t// in\n    tag_96:\n        /* \"@openzeppelin/contracts/utils/Strings.sol\":759:780  Math.log10(value) + 1 */\n      add\n        /* \"@openzeppelin/contracts/utils/Strings.sol\":742:780  uint256 length = Math.log10(value) + 1 */\n      swap1\n      pop\n        /* \"@openzeppelin/contracts/utils/Strings.sol\":794:814  string memory buffer */\n      0x00\n        /* \"@openzeppelin/contracts/utils/Strings.sol\":828:834  length */\n      dup2\n        /* \"@openzeppelin/contracts/utils/Strings.sol\":817:835  new string(length) */\n      0xffffffffffffffff\n      dup2\n      gt\n      iszero\n      tag_98\n      jumpi\n      tag_99\n      tag_100\n      jump\t// in\n    tag_99:\n    tag_98:\n      mload(0x40)\n      swap1\n      dup1\n      dup3\n      mstore\n      dup1\n      0x1f\n      add\n      not(0x1f)\n      and\n      0x20\n      add\n      dup3\n      add\n      0x40\n      mstore\n      dup1\n      iszero\n      tag_101\n      jumpi\n      dup2\n      0x20\n      add\n      0x01\n      dup3\n      mul\n      dup1\n      calldatasize\n      dup4\n      calldatacopy\n      dup1\n      dup3\n      add\n      swap2\n      pop\n      pop\n      swap1\n      pop\n    tag_101:\n      pop\n        /* \"@openzeppelin/contracts/utils/Strings.sol\":794:835  string memory buffer = new string(length) */\n      swap1\n      pop\n        /* \"@openzeppelin/contracts/utils/Strings.sol\":849:860  uint256 ptr */\n      0x00\n        /* \"@openzeppelin/contracts/utils/Strings.sol\":944:950  length */\n      dup3\n        /* \"@openzeppelin/contracts/utils/Strings.sol\":940:942  32 */\n      0x20\n        /* \"@openzeppelin/contracts/utils/Strings.sol\":936:951  add(32, length) */\n      add\n        /* \"@openzeppelin/contracts/utils/Strings.sol\":928:934  buffer */\n      dup3\n        /* \"@openzeppelin/contracts/utils/Strings.sol\":924:952  add(buffer, add(32, length)) */\n      add\n        /* \"@openzeppelin/contracts/utils/Strings.sol\":917:952  ptr := add(buffer, add(32, length)) */\n      swap1\n      pop\n        /* \"@openzeppelin/contracts/utils/Strings.sol\":979:1226  while (true) {... */\n    tag_102:\n        /* \"@openzeppelin/contracts/utils/Strings.sol\":986:990  true */\n      0x01\n        /* \"@openzeppelin/contracts/utils/Strings.sol\":979:1226  while (true) {... */\n      iszero\n      tag_103\n      jumpi\n        /* \"@openzeppelin/contracts/utils/Strings.sol\":1010:1015  ptr-- */\n      dup1\n      dup1\n      0x01\n      swap1\n      sub\n      swap2\n      pop\n      pop\n        /* \"@openzeppelin/contracts/utils/Strings.sol\":1114:1124  HEX_DIGITS */\n      0x3031323334353637383961626364656600000000000000000000000000000000\n        /* \"@openzeppelin/contracts/utils/Strings.sol\":1109:1111  10 */\n      0x0a\n        /* \"@openzeppelin/contracts/utils/Strings.sol\":1102:1107  value */\n      dup7\n        /* \"@openzeppelin/contracts/utils/Strings.sol\":1098:1112  mod(value, 10) */\n      mod\n        /* \"@openzeppelin/contracts/utils/Strings.sol\":1093:1125  byte(mod(value, 10), HEX_DIGITS) */\n      byte\n        /* \"@openzeppelin/contracts/utils/Strings.sol\":1088:1091  ptr */\n      dup2\n        /* \"@openzeppelin/contracts/utils/Strings.sol\":1080:1126  mstore8(ptr, byte(mod(value, 10), HEX_DIGITS)) */\n      mstore8\n        /* \"@openzeppelin/contracts/utils/Strings.sol\":1170:1172  10 */\n      0x0a\n        /* \"@openzeppelin/contracts/utils/Strings.sol\":1161:1172  value /= 10 */\n      dup6\n      dup2\n      tag_104\n      jumpi\n      tag_105\n      tag_106\n      jump\t// in\n    tag_105:\n    tag_104:\n      div\n      swap5\n      pop\n        /* \"@openzeppelin/contracts/utils/Strings.sol\":1203:1204  0 */\n      0x00\n        /* \"@openzeppelin/contracts/utils/Strings.sol\":1194:1199  value */\n      dup6\n        /* \"@openzeppelin/contracts/utils/Strings.sol\":1194:1204  value == 0 */\n      sub\n        /* \"@openzeppelin/contracts/utils/Strings.sol\":979:1226  while (true) {... */\n      tag_102\n        /* \"@openzeppelin/contracts/utils/Strings.sol\":1190:1211  if (value == 0) break */\n      jumpi\n        /* \"@openzeppelin/contracts/utils/Strings.sol\":979:1226  while (true) {... */\n    tag_103:\n        /* \"@openzeppelin/contracts/utils/Strings.sol\":1246:1252  buffer */\n      dup2\n        /* \"@openzeppelin/contracts/utils/Strings.sol\":1239:1252  return buffer */\n      swap4\n      pop\n      pop\n      pop\n      pop\n        /* \"@openzeppelin/contracts/utils/Strings.sol\":637:1269  function toString(uint256 value) internal pure returns (string memory) {... */\n      swap2\n      swap1\n      pop\n      jump\t// out\n        /* \"EAS/SchemaResolver.sol\":6031:6159  function _onlyEAS() private view {... */\n    tag_51:\n        /* \"EAS/SchemaResolver.sol\":6100:6104  _eas */\n      immutable(\"0x2259d879c3ddbdea21c969f6c449c00063955c875b82cae8e1ca0111b45714a4\")\n        /* \"EAS/SchemaResolver.sol\":6078:6105  msg.sender != address(_eas) */\n      0xffffffffffffffffffffffffffffffffffffffff\n      and\n        /* \"EAS/SchemaResolver.sol\":6078:6088  msg.sender */\n      caller\n        /* \"EAS/SchemaResolver.sol\":6078:6105  msg.sender != address(_eas) */\n      0xffffffffffffffffffffffffffffffffffffffff\n      and\n      eq\n        /* \"EAS/SchemaResolver.sol\":6074:6153  if (msg.sender != address(_eas)) {... */\n      tag_109\n      jumpi\n        /* \"EAS/SchemaResolver.sol\":6128:6142  AccessDenied() */\n      mload(0x40)\n      0x4ca8886700000000000000000000000000000000000000000000000000000000\n      dup2\n      mstore\n      0x04\n      add\n      mload(0x40)\n      dup1\n      swap2\n      sub\n      swap1\n      revert\n        /* \"EAS/SchemaResolver.sol\":6074:6153  if (msg.sender != address(_eas)) {... */\n    tag_109:\n        /* \"EAS/SchemaResolver.sol\":6031:6159  function _onlyEAS() private view {... */\n      jump\t// out\n        /* \"resolver.sol\":3075:3216  function onRevoke(Attestation calldata /*attestation*/, uint256 /*value*/) internal pure override returns (bool) {... */\n    tag_66:\n        /* \"resolver.sol\":3182:3186  bool */\n      0x00\n        /* \"resolver.sol\":3205:3209  true */\n      0x01\n        /* \"resolver.sol\":3198:3209  return true */\n      swap1\n      pop\n        /* \"resolver.sol\":3075:3216  function onRevoke(Attestation calldata /*attestation*/, uint256 /*value*/) internal pure override returns (bool) {... */\n      swap3\n      swap2\n      pop\n      pop\n      jump\t// out\n        /* \"EAS/Common.sol\":1397:1499  function uncheckedInc(uint256 i) pure returns (uint256 j) {... */\n    tag_69:\n        /* \"EAS/Common.sol\":1444:1453  uint256 j */\n      0x00\n        /* \"EAS/Common.sol\":1489:1490  1 */\n      0x01\n        /* \"EAS/Common.sol\":1485:1486  i */\n      dup3\n        /* \"EAS/Common.sol\":1485:1490  i + 1 */\n      add\n        /* \"EAS/Common.sol\":1481:1490  j = i + 1 */\n      swap1\n      pop\n        /* \"EAS/Common.sol\":1397:1499  function uncheckedInc(uint256 i) pure returns (uint256 j) {... */\n      swap2\n      swap1\n      pop\n      jump\t// out\n        /* \"resolver.sol\":450:2101  function onAttest(Attestation calldata attestation, uint256 /*value*/) internal view override returns (bool) {... */\n    tag_84:\n        /* \"resolver.sol\":553:557  bool */\n      0x00\n        /* \"resolver.sol\":698:699  0 */\n      0x00\n        /* \"resolver.sol\":665:700  attestation.recipient == address(0) */\n      0xffffffffffffffffffffffffffffffffffffffff\n      and\n        /* \"resolver.sol\":665:676  attestation */\n      dup4\n        /* \"resolver.sol\":665:686  attestation.recipient */\n      0xc0\n      add\n      0x20\n      dup2\n      add\n      swap1\n      tag_113\n      swap2\n      swap1\n      tag_114\n      jump\t// in\n    tag_113:\n        /* \"resolver.sol\":665:700  attestation.recipient == address(0) */\n      0xffffffffffffffffffffffffffffffffffffffff\n      and\n      sub\n        /* \"resolver.sol\":661:739  if (attestation.recipient == address(0)) {... */\n      tag_115\n      jumpi\n        /* \"resolver.sol\":723:728  false */\n      0x00\n        /* \"resolver.sol\":716:728  return false */\n      swap1\n      pop\n      jump(tag_112)\n        /* \"resolver.sol\":661:739  if (attestation.recipient == address(0)) {... */\n    tag_115:\n        /* \"resolver.sol\":813:830  bool ownableCheck */\n      0x00\n        /* \"resolver.sol\":833:878  extractOwnableCheckFromData(attestation.data) */\n      tag_116\n        /* \"resolver.sol\":861:872  attestation */\n      dup5\n        /* \"resolver.sol\":861:877  attestation.data */\n      dup1\n      0x0120\n      add\n      swap1\n      tag_117\n      swap2\n      swap1\n      tag_118\n      jump\t// in\n    tag_117:\n        /* \"resolver.sol\":833:878  extractOwnableCheckFromData(attestation.data) */\n      dup1\n      dup1\n      0x1f\n      add\n      0x20\n      dup1\n      swap2\n      div\n      mul\n      0x20\n      add\n      mload(0x40)\n      swap1\n      dup2\n      add\n      0x40\n      mstore\n      dup1\n      swap4\n      swap3\n      swap2\n      swap1\n      dup2\n      dup2\n      mstore\n      0x20\n      add\n      dup4\n      dup4\n      dup1\n      dup3\n      dup5\n      calldatacopy\n      0x00\n      dup2\n      dup5\n      add\n      mstore\n      not(0x1f)\n      0x1f\n      dup3\n      add\n      and\n      swap1\n      pop\n      dup1\n      dup4\n      add\n      swap3\n      pop\n      pop\n      pop\n      pop\n      pop\n      pop\n      pop\n        /* \"resolver.sol\":833:860  extractOwnableCheckFromData */\n      tag_119\n        /* \"resolver.sol\":833:878  extractOwnableCheckFromData(attestation.data) */\n      jump\t// in\n    tag_116:\n        /* \"resolver.sol\":813:878  bool ownableCheck = extractOwnableCheckFromData(attestation.data) */\n      swap1\n      pop\n        /* \"resolver.sol\":946:958  ownableCheck */\n      dup1\n        /* \"resolver.sol\":941:996  if (!ownableCheck) {... */\n      tag_120\n      jumpi\n        /* \"resolver.sol\":981:985  true */\n      0x01\n        /* \"resolver.sol\":974:985  return true */\n      swap2\n      pop\n      pop\n      jump(tag_112)\n        /* \"resolver.sol\":941:996  if (!ownableCheck) {... */\n    tag_120:\n        /* \"resolver.sol\":1252:1253  0 */\n      0x00\n        /* \"resolver.sol\":1215:1226  attestation */\n      dup5\n        /* \"resolver.sol\":1215:1236  attestation.recipient */\n      0xc0\n      add\n      0x20\n      dup2\n      add\n      swap1\n      tag_121\n      swap2\n      swap1\n      tag_114\n      jump\t// in\n    tag_121:\n        /* \"resolver.sol\":1215:1248  attestation.recipient.code.length */\n      0xffffffffffffffffffffffffffffffffffffffff\n      and\n      extcodesize\n        /* \"resolver.sol\":1215:1253  attestation.recipient.code.length == 0 */\n      sub\n        /* \"resolver.sol\":1211:1292  if (attestation.recipient.code.length == 0) {... */\n      tag_122\n      jumpi\n        /* \"resolver.sol\":1276:1281  false */\n      0x00\n        /* \"resolver.sol\":1269:1281  return false */\n      swap2\n      pop\n      pop\n      jump(tag_112)\n        /* \"resolver.sol\":1211:1292  if (attestation.recipient.code.length == 0) {... */\n    tag_122:\n        /* \"resolver.sol\":1368:1390  uint256 currentChainId */\n      0x00\n        /* \"resolver.sol\":1441:1450  chainid() */\n      chainid\n        /* \"resolver.sol\":1423:1450  currentChainId := chainid() */\n      swap1\n      pop\n        /* \"resolver.sol\":1478:1501  uint256 expectedChainId */\n      0x00\n        /* \"resolver.sol\":1504:1544  extractChainIdFromData(attestation.data) */\n      tag_123\n        /* \"resolver.sol\":1527:1538  attestation */\n      dup7\n        /* \"resolver.sol\":1527:1543  attestation.data */\n      dup1\n      0x0120\n      add\n      swap1\n      tag_124\n      swap2\n      swap1\n      tag_118\n      jump\t// in\n    tag_124:\n        /* \"resolver.sol\":1504:1544  extractChainIdFromData(attestation.data) */\n      dup1\n      dup1\n      0x1f\n      add\n      0x20\n      dup1\n      swap2\n      div\n      mul\n      0x20\n      add\n      mload(0x40)\n      swap1\n      dup2\n      add\n      0x40\n      mstore\n      dup1\n      swap4\n      swap3\n      swap2\n      swap1\n      dup2\n      dup2\n      mstore\n      0x20\n      add\n      dup4\n      dup4\n      dup1\n      dup3\n      dup5\n      calldatacopy\n      0x00\n      dup2\n      dup5\n      add\n      mstore\n      not(0x1f)\n      0x1f\n      dup3\n      add\n      and\n      swap1\n      pop\n      dup1\n      dup4\n      add\n      swap3\n      pop\n      pop\n      pop\n      pop\n      pop\n      pop\n      pop\n        /* \"resolver.sol\":1504:1526  extractChainIdFromData */\n      tag_125\n        /* \"resolver.sol\":1504:1544  extractChainIdFromData(attestation.data) */\n      jump\t// in\n    tag_123:\n        /* \"resolver.sol\":1478:1544  uint256 expectedChainId = extractChainIdFromData(attestation.data) */\n      swap1\n      pop\n        /* \"resolver.sol\":1576:1591  expectedChainId */\n      dup1\n        /* \"resolver.sol\":1558:1572  currentChainId */\n      dup3\n        /* \"resolver.sol\":1558:1591  currentChainId != expectedChainId */\n      eq\n        /* \"resolver.sol\":1554:1630  if (currentChainId != expectedChainId) {... */\n      tag_126\n      jumpi\n        /* \"resolver.sol\":1614:1619  false */\n      0x00\n        /* \"resolver.sol\":1607:1619  return false */\n      swap4\n      pop\n      pop\n      pop\n      pop\n      jump(tag_112)\n        /* \"resolver.sol\":1554:1630  if (currentChainId != expectedChainId) {... */\n    tag_126:\n        /* \"resolver.sol\":1698:1721  Ownable ownableContract */\n      0x00\n        /* \"resolver.sol\":1732:1743  attestation */\n      dup7\n        /* \"resolver.sol\":1732:1753  attestation.recipient */\n      0xc0\n      add\n      0x20\n      dup2\n      add\n      swap1\n      tag_127\n      swap2\n      swap1\n      tag_114\n      jump\t// in\n    tag_127:\n        /* \"resolver.sol\":1698:1754  Ownable ownableContract = Ownable(attestation.recipient) */\n      swap1\n      pop\n        /* \"resolver.sol\":1769:1784  ownableContract */\n      dup1\n        /* \"resolver.sol\":1769:1790  ownableContract.owner */\n      0xffffffffffffffffffffffffffffffffffffffff\n      and\n      0x8da5cb5b\n        /* \"resolver.sol\":1769:1792  ownableContract.owner() */\n      mload(0x40)\n      dup2\n      0xffffffff\n      and\n      0xe0\n      shl\n      dup2\n      mstore\n      0x04\n      add\n      0x20\n      mload(0x40)\n      dup1\n      dup4\n      sub\n      dup2\n      dup7\n      gas\n      staticcall\n      swap3\n      pop\n      pop\n      pop\n      dup1\n      iszero\n      tag_128\n      jumpi\n      pop\n      mload(0x40)\n      returndatasize\n      not(0x1f)\n      0x1f\n      dup3\n      add\n      and\n      dup3\n      add\n      dup1\n      0x40\n      mstore\n      pop\n      dup2\n      add\n      swap1\n      tag_129\n      swap2\n      swap1\n      tag_130\n      jump\t// in\n    tag_129:\n      0x01\n    tag_128:\n        /* \"resolver.sol\":1765:2095  try ownableContract.owner() returns (address owner) {... */\n      tag_131\n      jumpi\n        /* \"resolver.sol\":2079:2084  false */\n      0x00\n        /* \"resolver.sol\":2072:2084  return false */\n      swap5\n      pop\n      pop\n      pop\n      pop\n      pop\n      jump(tag_112)\n        /* \"resolver.sol\":1765:2095  try ownableContract.owner() returns (address owner) {... */\n    tag_131:\n        /* \"resolver.sol\":1939:1944  owner */\n      dup1\n        /* \"resolver.sol\":1915:1944  attestation.attester == owner */\n      0xffffffffffffffffffffffffffffffffffffffff\n      and\n        /* \"resolver.sol\":1915:1926  attestation */\n      dup9\n        /* \"resolver.sol\":1915:1935  attestation.attester */\n      0xe0\n      add\n      0x20\n      dup2\n      add\n      swap1\n      tag_136\n      swap2\n      swap1\n      tag_114\n      jump\t// in\n    tag_136:\n        /* \"resolver.sol\":1915:1944  attestation.attester == owner */\n      0xffffffffffffffffffffffffffffffffffffffff\n      and\n      eq\n        /* \"resolver.sol\":1908:1944  return attestation.attester == owner */\n      swap6\n      pop\n      pop\n      pop\n      pop\n      pop\n      pop\n        /* \"resolver.sol\":450:2101  function onAttest(Attestation calldata attestation, uint256 /*value*/) internal view override returns (bool) {... */\n    tag_112:\n      swap3\n      swap2\n      pop\n      pop\n      jump\t// out\n        /* \"@openzeppelin/contracts/utils/math/Math.sol\":25316:26232  function log10(uint256 value) internal pure returns (uint256) {... */\n    tag_97:\n        /* \"@openzeppelin/contracts/utils/math/Math.sol\":25369:25376  uint256 */\n      0x00\n        /* \"@openzeppelin/contracts/utils/math/Math.sol\":25388:25402  uint256 result */\n      0x00\n        /* \"@openzeppelin/contracts/utils/math/Math.sol\":25405:25406  0 */\n      0x00\n        /* \"@openzeppelin/contracts/utils/math/Math.sol\":25388:25406  uint256 result = 0 */\n      swap1\n      pop\n        /* \"@openzeppelin/contracts/utils/math/Math.sol\":25453:25461  10 ** 64 */\n      0x184f03e93ff9f4daa797ed6e38ed64bf6a1f010000000000000000\n        /* \"@openzeppelin/contracts/utils/math/Math.sol\":25444:25449  value */\n      dup4\n        /* \"@openzeppelin/contracts/utils/math/Math.sol\":25444:25461  value >= 10 ** 64 */\n      lt\n        /* \"@openzeppelin/contracts/utils/math/Math.sol\":25440:25543  if (value >= 10 ** 64) {... */\n      tag_138\n      jumpi\n        /* \"@openzeppelin/contracts/utils/math/Math.sol\":25490:25498  10 ** 64 */\n      0x184f03e93ff9f4daa797ed6e38ed64bf6a1f010000000000000000\n        /* \"@openzeppelin/contracts/utils/math/Math.sol\":25481:25498  value /= 10 ** 64 */\n      dup4\n      dup2\n      tag_139\n      jumpi\n      tag_140\n      tag_106\n      jump\t// in\n    tag_140:\n    tag_139:\n      div\n      swap3\n      pop\n        /* \"@openzeppelin/contracts/utils/math/Math.sol\":25526:25528  64 */\n      0x40\n        /* \"@openzeppelin/contracts/utils/math/Math.sol\":25516:25528  result += 64 */\n      dup2\n      add\n      swap1\n      pop\n        /* \"@openzeppelin/contracts/utils/math/Math.sol\":25440:25543  if (value >= 10 ** 64) {... */\n    tag_138:\n        /* \"@openzeppelin/contracts/utils/math/Math.sol\":25569:25577  10 ** 32 */\n      0x04ee2d6d415b85acef8100000000\n        /* \"@openzeppelin/contracts/utils/math/Math.sol\":25560:25565  value */\n      dup4\n        /* \"@openzeppelin/contracts/utils/math/Math.sol\":25560:25577  value >= 10 ** 32 */\n      lt\n        /* \"@openzeppelin/contracts/utils/math/Math.sol\":25556:25659  if (value >= 10 ** 32) {... */\n      tag_141\n      jumpi\n        /* \"@openzeppelin/contracts/utils/math/Math.sol\":25606:25614  10 ** 32 */\n      0x04ee2d6d415b85acef8100000000\n        /* \"@openzeppelin/contracts/utils/math/Math.sol\":25597:25614  value /= 10 ** 32 */\n      dup4\n      dup2\n      tag_142\n      jumpi\n      tag_143\n      tag_106\n      jump\t// in\n    tag_143:\n    tag_142:\n      div\n      swap3\n      pop\n        /* \"@openzeppelin/contracts/utils/math/Math.sol\":25642:25644  32 */\n      0x20\n        /* \"@openzeppelin/contracts/utils/math/Math.sol\":25632:25644  result += 32 */\n      dup2\n      add\n      swap1\n      pop\n        /* \"@openzeppelin/contracts/utils/math/Math.sol\":25556:25659  if (value >= 10 ** 32) {... */\n    tag_141:\n        /* \"@openzeppelin/contracts/utils/math/Math.sol\":25685:25693  10 ** 16 */\n      0x2386f26fc10000\n        /* \"@openzeppelin/contracts/utils/math/Math.sol\":25676:25681  value */\n      dup4\n        /* \"@openzeppelin/contracts/utils/math/Math.sol\":25676:25693  value >= 10 ** 16 */\n      lt\n        /* \"@openzeppelin/contracts/utils/math/Math.sol\":25672:25775  if (value >= 10 ** 16) {... */\n      tag_144\n      jumpi\n        /* \"@openzeppelin/contracts/utils/math/Math.sol\":25722:25730  10 ** 16 */\n      0x2386f26fc10000\n        /* \"@openzeppelin/contracts/utils/math/Math.sol\":25713:25730  value /= 10 ** 16 */\n      dup4\n      dup2\n      tag_145\n      jumpi\n      tag_146\n      tag_106\n      jump\t// in\n    tag_146:\n    tag_145:\n      div\n      swap3\n      pop\n        /* \"@openzeppelin/contracts/utils/math/Math.sol\":25758:25760  16 */\n      0x10\n        /* \"@openzeppelin/contracts/utils/math/Math.sol\":25748:25760  result += 16 */\n      dup2\n      add\n      swap1\n      pop\n        /* \"@openzeppelin/contracts/utils/math/Math.sol\":25672:25775  if (value >= 10 ** 16) {... */\n    tag_144:\n        /* \"@openzeppelin/contracts/utils/math/Math.sol\":25801:25808  10 ** 8 */\n      0x05f5e100\n        /* \"@openzeppelin/contracts/utils/math/Math.sol\":25792:25797  value */\n      dup4\n        /* \"@openzeppelin/contracts/utils/math/Math.sol\":25792:25808  value >= 10 ** 8 */\n      lt\n        /* \"@openzeppelin/contracts/utils/math/Math.sol\":25788:25888  if (value >= 10 ** 8) {... */\n      tag_147\n      jumpi\n        /* \"@openzeppelin/contracts/utils/math/Math.sol\":25837:25844  10 ** 8 */\n      0x05f5e100\n        /* \"@openzeppelin/contracts/utils/math/Math.sol\":25828:25844  value /= 10 ** 8 */\n      dup4\n      dup2\n      tag_148\n      jumpi\n      tag_149\n      tag_106\n      jump\t// in\n    tag_149:\n    tag_148:\n      div\n      swap3\n      pop\n        /* \"@openzeppelin/contracts/utils/math/Math.sol\":25872:25873  8 */\n      0x08\n        /* \"@openzeppelin/contracts/utils/math/Math.sol\":25862:25873  result += 8 */\n      dup2\n      add\n      swap1\n      pop\n        /* \"@openzeppelin/contracts/utils/math/Math.sol\":25788:25888  if (value >= 10 ** 8) {... */\n    tag_147:\n        /* \"@openzeppelin/contracts/utils/math/Math.sol\":25914:25921  10 ** 4 */\n      0x2710\n        /* \"@openzeppelin/contracts/utils/math/Math.sol\":25905:25910  value */\n      dup4\n        /* \"@openzeppelin/contracts/utils/math/Math.sol\":25905:25921  value >= 10 ** 4 */\n      lt\n        /* \"@openzeppelin/contracts/utils/math/Math.sol\":25901:26001  if (value >= 10 ** 4) {... */\n      tag_150\n      jumpi\n        /* \"@openzeppelin/contracts/utils/math/Math.sol\":25950:25957  10 ** 4 */\n      0x2710\n        /* \"@openzeppelin/contracts/utils/math/Math.sol\":25941:25957  value /= 10 ** 4 */\n      dup4\n      dup2\n      tag_151\n      jumpi\n      tag_152\n      tag_106\n      jump\t// in\n    tag_152:\n    tag_151:\n      div\n      swap3\n      pop\n        /* \"@openzeppelin/contracts/utils/math/Math.sol\":25985:25986  4 */\n      0x04\n        /* \"@openzeppelin/contracts/utils/math/Math.sol\":25975:25986  result += 4 */\n      dup2\n      add\n      swap1\n      pop\n        /* \"@openzeppelin/contracts/utils/math/Math.sol\":25901:26001  if (value >= 10 ** 4) {... */\n    tag_150:\n        /* \"@openzeppelin/contracts/utils/math/Math.sol\":26027:26034  10 ** 2 */\n      0x64\n        /* \"@openzeppelin/contracts/utils/math/Math.sol\":26018:26023  value */\n      dup4\n        /* \"@openzeppelin/contracts/utils/math/Math.sol\":26018:26034  value >= 10 ** 2 */\n      lt\n        /* \"@openzeppelin/contracts/utils/math/Math.sol\":26014:26114  if (value >= 10 ** 2) {... */\n      tag_153\n      jumpi\n        /* \"@openzeppelin/contracts/utils/math/Math.sol\":26063:26070  10 ** 2 */\n      0x64\n        /* \"@openzeppelin/contracts/utils/math/Math.sol\":26054:26070  value /= 10 ** 2 */\n      dup4\n      dup2\n      tag_154\n      jumpi\n      tag_155\n      tag_106\n      jump\t// in\n    tag_155:\n    tag_154:\n      div\n      swap3\n      pop\n        /* \"@openzeppelin/contracts/utils/math/Math.sol\":26098:26099  2 */\n      0x02\n        /* \"@openzeppelin/contracts/utils/math/Math.sol\":26088:26099  result += 2 */\n      dup2\n      add\n      swap1\n      pop\n        /* \"@openzeppelin/contracts/utils/math/Math.sol\":26014:26114  if (value >= 10 ** 2) {... */\n    tag_153:\n        /* \"@openzeppelin/contracts/utils/math/Math.sol\":26140:26147  10 ** 1 */\n      0x0a\n        /* \"@openzeppelin/contracts/utils/math/Math.sol\":26131:26136  value */\n      dup4\n        /* \"@openzeppelin/contracts/utils/math/Math.sol\":26131:26147  value >= 10 ** 1 */\n      lt\n        /* \"@openzeppelin/contracts/utils/math/Math.sol\":26127:26193  if (value >= 10 ** 1) {... */\n      tag_156\n      jumpi\n        /* \"@openzeppelin/contracts/utils/math/Math.sol\":26177:26178  1 */\n      0x01\n        /* \"@openzeppelin/contracts/utils/math/Math.sol\":26167:26178  result += 1 */\n      dup2\n      add\n      swap1\n      pop\n        /* \"@openzeppelin/contracts/utils/math/Math.sol\":26127:26193  if (value >= 10 ** 1) {... */\n    tag_156:\n        /* \"@openzeppelin/contracts/utils/math/Math.sol\":26219:26225  result */\n      dup1\n        /* \"@openzeppelin/contracts/utils/math/Math.sol\":26212:26225  return result */\n      swap2\n      pop\n      pop\n        /* \"@openzeppelin/contracts/utils/math/Math.sol\":25316:26232  function log10(uint256 value) internal pure returns (uint256) {... */\n      swap2\n      swap1\n      pop\n      jump\t// out\n        /* \"resolver.sol\":2555:3069  function extractOwnableCheckFromData(bytes memory data) internal pure returns (bool) {... */\n    tag_119:\n        /* \"resolver.sol\":2634:2638  bool */\n      0x00\n        /* \"resolver.sol\":2673:2676  288 */\n      0x0120\n        /* \"resolver.sol\":2658:2662  data */\n      dup3\n        /* \"resolver.sol\":2658:2669  data.length */\n      mload\n        /* \"resolver.sol\":2658:2676  data.length >= 288 */\n      lt\n      iszero\n        /* \"resolver.sol\":2650:2695  require(data.length >= 288, \"Data too short\") */\n      tag_158\n      jumpi\n      mload(0x40)\n      0x08c379a000000000000000000000000000000000000000000000000000000000\n      dup2\n      mstore\n      0x04\n      add\n      tag_159\n      swap1\n      tag_160\n      jump\t// in\n    tag_159:\n      mload(0x40)\n      dup1\n      swap2\n      sub\n      swap1\n      revert\n    tag_158:\n        /* \"resolver.sol\":2807:2829  uint256 extractedValue */\n      0x00\n        /* \"resolver.sol\":2896:2899  288 */\n      0x0120\n        /* \"resolver.sol\":2890:2894  data */\n      dup4\n        /* \"resolver.sol\":2886:2900  add(data, 288) */\n      add\n        /* \"resolver.sol\":2880:2901  mload(add(data, 288)) */\n      mload\n        /* \"resolver.sol\":2862:2901  extractedValue := mload(add(data, 288)) */\n      swap1\n      pop\n        /* \"resolver.sol\":2978:2981  0x1 */\n      0x01\n        /* \"resolver.sol\":2962:2976  extractedValue */\n      dup2\n        /* \"resolver.sol\":2958:2982  and(extractedValue, 0x1) */\n      and\n        /* \"resolver.sol\":2940:2982  extractedValue := and(extractedValue, 0x1) */\n      swap1\n      pop\n        /* \"resolver.sol\":3061:3062  1 */\n      0x01\n        /* \"resolver.sol\":3043:3057  extractedValue */\n      dup2\n        /* \"resolver.sol\":3043:3062  extractedValue == 1 */\n      eq\n        /* \"resolver.sol\":3036:3062  return extractedValue == 1 */\n      swap2\n      pop\n      pop\n        /* \"resolver.sol\":2555:3069  function extractOwnableCheckFromData(bytes memory data) internal pure returns (bool) {... */\n      swap2\n      swap1\n      pop\n      jump\t// out\n        /* \"resolver.sol\":2107:2549  function extractChainIdFromData(bytes memory data) internal pure returns (uint256) {... */\n    tag_125:\n        /* \"resolver.sol\":2181:2188  uint256 */\n      0x00\n        /* \"resolver.sol\":2223:2226  256 */\n      0x0100\n        /* \"resolver.sol\":2208:2212  data */\n      dup3\n        /* \"resolver.sol\":2208:2219  data.length */\n      mload\n        /* \"resolver.sol\":2208:2226  data.length >= 256 */\n      lt\n      iszero\n        /* \"resolver.sol\":2200:2245  require(data.length >= 256, \"Data too short\") */\n      tag_162\n      jumpi\n      mload(0x40)\n      0x08c379a000000000000000000000000000000000000000000000000000000000\n      dup2\n      mstore\n      0x04\n      add\n      tag_163\n      swap1\n      tag_160\n      jump\t// in\n    tag_163:\n      mload(0x40)\n      dup1\n      swap2\n      sub\n      swap1\n      revert\n    tag_162:\n        /* \"resolver.sol\":2341:2363  uint256 extractedValue */\n      0x00\n        /* \"resolver.sol\":2430:2433  256 */\n      0x0100\n        /* \"resolver.sol\":2424:2428  data */\n      dup4\n        /* \"resolver.sol\":2420:2434  add(data, 256) */\n      add\n        /* \"resolver.sol\":2414:2435  mload(add(data, 256)) */\n      mload\n        /* \"resolver.sol\":2396:2435  extractedValue := mload(add(data, 256)) */\n      swap1\n      pop\n        /* \"resolver.sol\":2528:2542  extractedValue */\n      dup1\n        /* \"resolver.sol\":2521:2542  return extractedValue */\n      swap2\n      pop\n      pop\n        /* \"resolver.sol\":2107:2549  function extractChainIdFromData(bytes memory data) internal pure returns (uint256) {... */\n      swap2\n      swap1\n      pop\n      jump\t// out\n        /* \"#utility.yul\":7:106   */\n    tag_164:\n        /* \"#utility.yul\":59:65   */\n      0x00\n        /* \"#utility.yul\":93:98   */\n      dup2\n        /* \"#utility.yul\":87:99   */\n      mload\n        /* \"#utility.yul\":77:99   */\n      swap1\n      pop\n        /* \"#utility.yul\":7:106   */\n      swap2\n      swap1\n      pop\n      jump\t// out\n        /* \"#utility.yul\":112:281   */\n    tag_165:\n        /* \"#utility.yul\":196:207   */\n      0x00\n        /* \"#utility.yul\":230:236   */\n      dup3\n        /* \"#utility.yul\":225:228   */\n      dup3\n        /* \"#utility.yul\":218:237   */\n      mstore\n        /* \"#utility.yul\":270:274   */\n      0x20\n        /* \"#utility.yul\":265:268   */\n      dup3\n        /* \"#utility.yul\":261:275   */\n      add\n        /* \"#utility.yul\":246:275   */\n      swap1\n      pop\n        /* \"#utility.yul\":112:281   */\n      swap3\n      swap2\n      pop\n      pop\n      jump\t// out\n        /* \"#utility.yul\":287:426   */\n    tag_166:\n        /* \"#utility.yul\":376:382   */\n      dup3\n        /* \"#utility.yul\":371:374   */\n      dup2\n        /* \"#utility.yul\":366:369   */\n      dup4\n        /* \"#utility.yul\":360:383   */\n      mcopy\n        /* \"#utility.yul\":417:418   */\n      0x00\n        /* \"#utility.yul\":408:414   */\n      dup4\n        /* \"#utility.yul\":403:406   */\n      dup4\n        /* \"#utility.yul\":399:415   */\n      add\n        /* \"#utility.yul\":392:419   */\n      mstore\n        /* \"#utility.yul\":287:426   */\n      pop\n      pop\n      pop\n      jump\t// out\n        /* \"#utility.yul\":432:534   */\n    tag_167:\n        /* \"#utility.yul\":473:479   */\n      0x00\n        /* \"#utility.yul\":524:526   */\n      0x1f\n        /* \"#utility.yul\":520:527   */\n      not\n        /* \"#utility.yul\":515:517   */\n      0x1f\n        /* \"#utility.yul\":508:513   */\n      dup4\n        /* \"#utility.yul\":504:518   */\n      add\n        /* \"#utility.yul\":500:528   */\n      and\n        /* \"#utility.yul\":490:528   */\n      swap1\n      pop\n        /* \"#utility.yul\":432:534   */\n      swap2\n      swap1\n      pop\n      jump\t// out\n        /* \"#utility.yul\":540:917   */\n    tag_168:\n        /* \"#utility.yul\":628:631   */\n      0x00\n        /* \"#utility.yul\":656:695   */\n      tag_201\n        /* \"#utility.yul\":689:694   */\n      dup3\n        /* \"#utility.yul\":656:695   */\n      tag_164\n      jump\t// in\n    tag_201:\n        /* \"#utility.yul\":711:782   */\n      tag_202\n        /* \"#utility.yul\":775:781   */\n      dup2\n        /* \"#utility.yul\":770:773   */\n      dup6\n        /* \"#utility.yul\":711:782   */\n      tag_165\n      jump\t// in\n    tag_202:\n        /* \"#utility.yul\":704:782   */\n      swap4\n      pop\n        /* \"#utility.yul\":791:856   */\n      tag_203\n        /* \"#utility.yul\":849:855   */\n      dup2\n        /* \"#utility.yul\":844:847   */\n      dup6\n        /* \"#utility.yul\":837:841   */\n      0x20\n        /* \"#utility.yul\":830:835   */\n      dup7\n        /* \"#utility.yul\":826:842   */\n      add\n        /* \"#utility.yul\":791:856   */\n      tag_166\n      jump\t// in\n    tag_203:\n        /* \"#utility.yul\":881:910   */\n      tag_204\n        /* \"#utility.yul\":903:909   */\n      dup2\n        /* \"#utility.yul\":881:910   */\n      tag_167\n      jump\t// in\n    tag_204:\n        /* \"#utility.yul\":876:879   */\n      dup5\n        /* \"#utility.yul\":872:911   */\n      add\n        /* \"#utility.yul\":865:911   */\n      swap2\n      pop\n        /* \"#utility.yul\":632:917   */\n      pop\n        /* \"#utility.yul\":540:917   */\n      swap3\n      swap2\n      pop\n      pop\n      jump\t// out\n        /* \"#utility.yul\":923:1236   */\n    tag_18:\n        /* \"#utility.yul\":1036:1040   */\n      0x00\n        /* \"#utility.yul\":1074:1076   */\n      0x20\n        /* \"#utility.yul\":1063:1072   */\n      dup3\n        /* \"#utility.yul\":1059:1077   */\n      add\n        /* \"#utility.yul\":1051:1077   */\n      swap1\n      pop\n        /* \"#utility.yul\":1123:1132   */\n      dup2\n        /* \"#utility.yul\":1117:1121   */\n      dup2\n        /* \"#utility.yul\":1113:1133   */\n      sub\n        /* \"#utility.yul\":1109:1110   */\n      0x00\n        /* \"#utility.yul\":1098:1107   */\n      dup4\n        /* \"#utility.yul\":1094:1111   */\n      add\n        /* \"#utility.yul\":1087:1134   */\n      mstore\n        /* \"#utility.yul\":1151:1229   */\n      tag_206\n        /* \"#utility.yul\":1224:1228   */\n      dup2\n        /* \"#utility.yul\":1215:1221   */\n      dup5\n        /* \"#utility.yul\":1151:1229   */\n      tag_168\n      jump\t// in\n    tag_206:\n        /* \"#utility.yul\":1143:1229   */\n      swap1\n      pop\n        /* \"#utility.yul\":923:1236   */\n      swap3\n      swap2\n      pop\n      pop\n      jump\t// out\n        /* \"#utility.yul\":1323:1440   */\n    tag_170:\n        /* \"#utility.yul\":1432:1433   */\n      0x00\n        /* \"#utility.yul\":1429:1430   */\n      0x00\n        /* \"#utility.yul\":1422:1434   */\n      revert\n        /* \"#utility.yul\":1446:1563   */\n    tag_171:\n        /* \"#utility.yul\":1555:1556   */\n      0x00\n        /* \"#utility.yul\":1552:1553   */\n      0x00\n        /* \"#utility.yul\":1545:1557   */\n      revert\n        /* \"#utility.yul\":1569:1686   */\n    tag_172:\n        /* \"#utility.yul\":1678:1679   */\n      0x00\n        /* \"#utility.yul\":1675:1676   */\n      0x00\n        /* \"#utility.yul\":1668:1680   */\n      revert\n        /* \"#utility.yul\":1692:1809   */\n    tag_173:\n        /* \"#utility.yul\":1801:1802   */\n      0x00\n        /* \"#utility.yul\":1798:1799   */\n      0x00\n        /* \"#utility.yul\":1791:1803   */\n      revert\n        /* \"#utility.yul\":1815:1932   */\n    tag_174:\n        /* \"#utility.yul\":1924:1925   */\n      0x00\n        /* \"#utility.yul\":1921:1922   */\n      0x00\n        /* \"#utility.yul\":1914:1926   */\n      revert\n        /* \"#utility.yul\":1966:2565   */\n    tag_175:\n        /* \"#utility.yul\":2070:2078   */\n      0x00\n        /* \"#utility.yul\":2080:2086   */\n      0x00\n        /* \"#utility.yul\":2130:2133   */\n      dup4\n        /* \"#utility.yul\":2123:2127   */\n      0x1f\n        /* \"#utility.yul\":2115:2121   */\n      dup5\n        /* \"#utility.yul\":2111:2128   */\n      add\n        /* \"#utility.yul\":2107:2134   */\n      slt\n        /* \"#utility.yul\":2097:2219   */\n      tag_214\n      jumpi\n        /* \"#utility.yul\":2138:2217   */\n      tag_215\n      tag_172\n      jump\t// in\n    tag_215:\n        /* \"#utility.yul\":2097:2219   */\n    tag_214:\n        /* \"#utility.yul\":2251:2257   */\n      dup3\n        /* \"#utility.yul\":2238:2258   */\n      calldataload\n        /* \"#utility.yul\":2228:2258   */\n      swap1\n      pop\n        /* \"#utility.yul\":2281:2299   */\n      0xffffffffffffffff\n        /* \"#utility.yul\":2273:2279   */\n      dup2\n        /* \"#utility.yul\":2270:2300   */\n      gt\n        /* \"#utility.yul\":2267:2384   */\n      iszero\n      tag_216\n      jumpi\n        /* \"#utility.yul\":2303:2382   */\n      tag_217\n      tag_173\n      jump\t// in\n    tag_217:\n        /* \"#utility.yul\":2267:2384   */\n    tag_216:\n        /* \"#utility.yul\":2417:2421   */\n      0x20\n        /* \"#utility.yul\":2409:2415   */\n      dup4\n        /* \"#utility.yul\":2405:2422   */\n      add\n        /* \"#utility.yul\":2393:2422   */\n      swap2\n      pop\n        /* \"#utility.yul\":2471:2474   */\n      dup4\n        /* \"#utility.yul\":2463:2467   */\n      0x20\n        /* \"#utility.yul\":2455:2461   */\n      dup3\n        /* \"#utility.yul\":2451:2468   */\n      mul\n        /* \"#utility.yul\":2441:2449   */\n      dup4\n        /* \"#utility.yul\":2437:2469   */\n      add\n        /* \"#utility.yul\":2434:2475   */\n      gt\n        /* \"#utility.yul\":2431:2559   */\n      iszero\n      tag_218\n      jumpi\n        /* \"#utility.yul\":2478:2557   */\n      tag_219\n      tag_174\n      jump\t// in\n    tag_219:\n        /* \"#utility.yul\":2431:2559   */\n    tag_218:\n        /* \"#utility.yul\":1966:2565   */\n      swap3\n      pop\n      swap3\n      swap1\n      pop\n      jump\t// out\n        /* \"#utility.yul\":2588:3156   */\n    tag_176:\n        /* \"#utility.yul\":2661:2669   */\n      0x00\n        /* \"#utility.yul\":2671:2677   */\n      0x00\n        /* \"#utility.yul\":2721:2724   */\n      dup4\n        /* \"#utility.yul\":2714:2718   */\n      0x1f\n        /* \"#utility.yul\":2706:2712   */\n      dup5\n        /* \"#utility.yul\":2702:2719   */\n      add\n        /* \"#utility.yul\":2698:2725   */\n      slt\n        /* \"#utility.yul\":2688:2810   */\n      tag_221\n      jumpi\n        /* \"#utility.yul\":2729:2808   */\n      tag_222\n      tag_172\n      jump\t// in\n    tag_222:\n        /* \"#utility.yul\":2688:2810   */\n    tag_221:\n        /* \"#utility.yul\":2842:2848   */\n      dup3\n        /* \"#utility.yul\":2829:2849   */\n      calldataload\n        /* \"#utility.yul\":2819:2849   */\n      swap1\n      pop\n        /* \"#utility.yul\":2872:2890   */\n      0xffffffffffffffff\n        /* \"#utility.yul\":2864:2870   */\n      dup2\n        /* \"#utility.yul\":2861:2891   */\n      gt\n        /* \"#utility.yul\":2858:2975   */\n      iszero\n      tag_223\n      jumpi\n        /* \"#utility.yul\":2894:2973   */\n      tag_224\n      tag_173\n      jump\t// in\n    tag_224:\n        /* \"#utility.yul\":2858:2975   */\n    tag_223:\n        /* \"#utility.yul\":3008:3012   */\n      0x20\n        /* \"#utility.yul\":3000:3006   */\n      dup4\n        /* \"#utility.yul\":2996:3013   */\n      add\n        /* \"#utility.yul\":2984:3013   */\n      swap2\n      pop\n        /* \"#utility.yul\":3062:3065   */\n      dup4\n        /* \"#utility.yul\":3054:3058   */\n      0x20\n        /* \"#utility.yul\":3046:3052   */\n      dup3\n        /* \"#utility.yul\":3042:3059   */\n      mul\n        /* \"#utility.yul\":3032:3040   */\n      dup4\n        /* \"#utility.yul\":3028:3060   */\n      add\n        /* \"#utility.yul\":3025:3066   */\n      gt\n        /* \"#utility.yul\":3022:3150   */\n      iszero\n      tag_225\n      jumpi\n        /* \"#utility.yul\":3069:3148   */\n      tag_226\n      tag_174\n      jump\t// in\n    tag_226:\n        /* \"#utility.yul\":3022:3150   */\n    tag_225:\n        /* \"#utility.yul\":2588:3156   */\n      swap3\n      pop\n      swap3\n      swap1\n      pop\n      jump\t// out\n        /* \"#utility.yul\":3162:4158   */\n    tag_21:\n        /* \"#utility.yul\":3315:3321   */\n      0x00\n        /* \"#utility.yul\":3323:3329   */\n      0x00\n        /* \"#utility.yul\":3331:3337   */\n      0x00\n        /* \"#utility.yul\":3339:3345   */\n      0x00\n        /* \"#utility.yul\":3388:3390   */\n      0x40\n        /* \"#utility.yul\":3376:3385   */\n      dup6\n        /* \"#utility.yul\":3367:3374   */\n      dup8\n        /* \"#utility.yul\":3363:3386   */\n      sub\n        /* \"#utility.yul\":3359:3391   */\n      slt\n        /* \"#utility.yul\":3356:3475   */\n      iszero\n      tag_228\n      jumpi\n        /* \"#utility.yul\":3394:3473   */\n      tag_229\n      tag_170\n      jump\t// in\n    tag_229:\n        /* \"#utility.yul\":3356:3475   */\n    tag_228:\n        /* \"#utility.yul\":3542:3543   */\n      0x00\n        /* \"#utility.yul\":3531:3540   */\n      dup6\n        /* \"#utility.yul\":3527:3544   */\n      add\n        /* \"#utility.yul\":3514:3545   */\n      calldataload\n        /* \"#utility.yul\":3572:3590   */\n      0xffffffffffffffff\n        /* \"#utility.yul\":3564:3570   */\n      dup2\n        /* \"#utility.yul\":3561:3591   */\n      gt\n        /* \"#utility.yul\":3558:3675   */\n      iszero\n      tag_230\n      jumpi\n        /* \"#utility.yul\":3594:3673   */\n      tag_231\n      tag_171\n      jump\t// in\n    tag_231:\n        /* \"#utility.yul\":3558:3675   */\n    tag_230:\n        /* \"#utility.yul\":3707:3818   */\n      tag_232\n        /* \"#utility.yul\":3810:3817   */\n      dup8\n        /* \"#utility.yul\":3801:3807   */\n      dup3\n        /* \"#utility.yul\":3790:3799   */\n      dup9\n        /* \"#utility.yul\":3786:3808   */\n      add\n        /* \"#utility.yul\":3707:3818   */\n      tag_175\n      jump\t// in\n    tag_232:\n        /* \"#utility.yul\":3689:3818   */\n      swap5\n      pop\n      swap5\n      pop\n        /* \"#utility.yul\":3485:3828   */\n      pop\n        /* \"#utility.yul\":3895:3897   */\n      0x20\n        /* \"#utility.yul\":3884:3893   */\n      dup6\n        /* \"#utility.yul\":3880:3898   */\n      add\n        /* \"#utility.yul\":3867:3899   */\n      calldataload\n        /* \"#utility.yul\":3926:3944   */\n      0xffffffffffffffff\n        /* \"#utility.yul\":3918:3924   */\n      dup2\n        /* \"#utility.yul\":3915:3945   */\n      gt\n        /* \"#utility.yul\":3912:4029   */\n      iszero\n      tag_233\n      jumpi\n        /* \"#utility.yul\":3948:4027   */\n      tag_234\n      tag_171\n      jump\t// in\n    tag_234:\n        /* \"#utility.yul\":3912:4029   */\n    tag_233:\n        /* \"#utility.yul\":4061:4141   */\n      tag_235\n        /* \"#utility.yul\":4133:4140   */\n      dup8\n        /* \"#utility.yul\":4124:4130   */\n      dup3\n        /* \"#utility.yul\":4113:4122   */\n      dup9\n        /* \"#utility.yul\":4109:4131   */\n      add\n        /* \"#utility.yul\":4061:4141   */\n      tag_176\n      jump\t// in\n    tag_235:\n        /* \"#utility.yul\":4043:4141   */\n      swap3\n      pop\n      swap3\n      pop\n        /* \"#utility.yul\":3838:4151   */\n      pop\n        /* \"#utility.yul\":3162:4158   */\n      swap3\n      swap6\n      swap2\n      swap5\n      pop\n      swap3\n      pop\n      jump\t// out\n        /* \"#utility.yul\":4164:4254   */\n    tag_177:\n        /* \"#utility.yul\":4198:4205   */\n      0x00\n        /* \"#utility.yul\":4241:4246   */\n      dup2\n        /* \"#utility.yul\":4234:4247   */\n      iszero\n        /* \"#utility.yul\":4227:4248   */\n      iszero\n        /* \"#utility.yul\":4216:4248   */\n      swap1\n      pop\n        /* \"#utility.yul\":4164:4254   */\n      swap2\n      swap1\n      pop\n      jump\t// out\n        /* \"#utility.yul\":4260:4369   */\n    tag_178:\n        /* \"#utility.yul\":4341:4362   */\n      tag_238\n        /* \"#utility.yul\":4356:4361   */\n      dup2\n        /* \"#utility.yul\":4341:4362   */\n      tag_177\n      jump\t// in\n    tag_238:\n        /* \"#utility.yul\":4336:4339   */\n      dup3\n        /* \"#utility.yul\":4329:4363   */\n      mstore\n        /* \"#utility.yul\":4260:4369   */\n      pop\n      pop\n      jump\t// out\n        /* \"#utility.yul\":4375:4585   */\n    tag_24:\n        /* \"#utility.yul\":4462:4466   */\n      0x00\n        /* \"#utility.yul\":4500:4502   */\n      0x20\n        /* \"#utility.yul\":4489:4498   */\n      dup3\n        /* \"#utility.yul\":4485:4503   */\n      add\n        /* \"#utility.yul\":4477:4503   */\n      swap1\n      pop\n        /* \"#utility.yul\":4513:4578   */\n      tag_240\n        /* \"#utility.yul\":4575:4576   */\n      0x00\n        /* \"#utility.yul\":4564:4573   */\n      dup4\n        /* \"#utility.yul\":4560:4577   */\n      add\n        /* \"#utility.yul\":4551:4557   */\n      dup5\n        /* \"#utility.yul\":4513:4578   */\n      tag_178\n      jump\t// in\n    tag_240:\n        /* \"#utility.yul\":4375:4585   */\n      swap3\n      swap2\n      pop\n      pop\n      jump\t// out\n        /* \"#utility.yul\":4591:4708   */\n    tag_179:\n        /* \"#utility.yul\":4700:4701   */\n      0x00\n        /* \"#utility.yul\":4697:4698   */\n      0x00\n        /* \"#utility.yul\":4690:4702   */\n      revert\n        /* \"#utility.yul\":4740:4976   */\n    tag_180:\n        /* \"#utility.yul\":4817:4822   */\n      0x00\n        /* \"#utility.yul\":4858:4861   */\n      0x0140\n        /* \"#utility.yul\":4849:4855   */\n      dup3\n        /* \"#utility.yul\":4844:4847   */\n      dup5\n        /* \"#utility.yul\":4840:4856   */\n      sub\n        /* \"#utility.yul\":4836:4862   */\n      slt\n        /* \"#utility.yul\":4833:4946   */\n      iszero\n      tag_243\n      jumpi\n        /* \"#utility.yul\":4865:4944   */\n      tag_244\n      tag_179\n      jump\t// in\n    tag_244:\n        /* \"#utility.yul\":4833:4946   */\n    tag_243:\n        /* \"#utility.yul\":4964:4970   */\n      dup2\n        /* \"#utility.yul\":4955:4970   */\n      swap1\n      pop\n        /* \"#utility.yul\":4740:4976   */\n      swap3\n      swap2\n      pop\n      pop\n      jump\t// out\n        /* \"#utility.yul\":4982:5533   */\n    tag_34:\n        /* \"#utility.yul\":5072:5078   */\n      0x00\n        /* \"#utility.yul\":5121:5123   */\n      0x20\n        /* \"#utility.yul\":5109:5118   */\n      dup3\n        /* \"#utility.yul\":5100:5107   */\n      dup5\n        /* \"#utility.yul\":5096:5119   */\n      sub\n        /* \"#utility.yul\":5092:5124   */\n      slt\n        /* \"#utility.yul\":5089:5208   */\n      iszero\n      tag_246\n      jumpi\n        /* \"#utility.yul\":5127:5206   */\n      tag_247\n      tag_170\n      jump\t// in\n    tag_247:\n        /* \"#utility.yul\":5089:5208   */\n    tag_246:\n        /* \"#utility.yul\":5275:5276   */\n      0x00\n        /* \"#utility.yul\":5264:5273   */\n      dup3\n        /* \"#utility.yul\":5260:5277   */\n      add\n        /* \"#utility.yul\":5247:5278   */\n      calldataload\n        /* \"#utility.yul\":5305:5323   */\n      0xffffffffffffffff\n        /* \"#utility.yul\":5297:5303   */\n      dup2\n        /* \"#utility.yul\":5294:5324   */\n      gt\n        /* \"#utility.yul\":5291:5408   */\n      iszero\n      tag_248\n      jumpi\n        /* \"#utility.yul\":5327:5406   */\n      tag_249\n      tag_171\n      jump\t// in\n    tag_249:\n        /* \"#utility.yul\":5291:5408   */\n    tag_248:\n        /* \"#utility.yul\":5432:5516   */\n      tag_250\n        /* \"#utility.yul\":5508:5515   */\n      dup5\n        /* \"#utility.yul\":5499:5505   */\n      dup3\n        /* \"#utility.yul\":5488:5497   */\n      dup6\n        /* \"#utility.yul\":5484:5506   */\n      add\n        /* \"#utility.yul\":5432:5516   */\n      tag_180\n      jump\t// in\n    tag_250:\n        /* \"#utility.yul\":5422:5516   */\n      swap2\n      pop\n        /* \"#utility.yul\":5218:5526   */\n      pop\n        /* \"#utility.yul\":4982:5533   */\n      swap3\n      swap2\n      pop\n      pop\n      jump\t// out\n        /* \"#utility.yul\":5539:5687   */\n    tag_181:\n        /* \"#utility.yul\":5641:5652   */\n      0x00\n        /* \"#utility.yul\":5678:5681   */\n      dup2\n        /* \"#utility.yul\":5663:5681   */\n      swap1\n      pop\n        /* \"#utility.yul\":5539:5687   */\n      swap3\n      swap2\n      pop\n      pop\n      jump\t// out\n        /* \"#utility.yul\":5693:6083   */\n    tag_182:\n        /* \"#utility.yul\":5799:5802   */\n      0x00\n        /* \"#utility.yul\":5827:5866   */\n      tag_253\n        /* \"#utility.yul\":5860:5865   */\n      dup3\n        /* \"#utility.yul\":5827:5866   */\n      tag_164\n      jump\t// in\n    tag_253:\n        /* \"#utility.yul\":5882:5971   */\n      tag_254\n        /* \"#utility.yul\":5964:5970   */\n      dup2\n        /* \"#utility.yul\":5959:5962   */\n      dup6\n        /* \"#utility.yul\":5882:5971   */\n      tag_181\n      jump\t// in\n    tag_254:\n        /* \"#utility.yul\":5875:5971   */\n      swap4\n      pop\n        /* \"#utility.yul\":5980:6045   */\n      tag_255\n        /* \"#utility.yul\":6038:6044   */\n      dup2\n        /* \"#utility.yul\":6033:6036   */\n      dup6\n        /* \"#utility.yul\":6026:6030   */\n      0x20\n        /* \"#utility.yul\":6019:6024   */\n      dup7\n        /* \"#utility.yul\":6015:6031   */\n      add\n        /* \"#utility.yul\":5980:6045   */\n      tag_166\n      jump\t// in\n    tag_255:\n        /* \"#utility.yul\":6070:6076   */\n      dup1\n        /* \"#utility.yul\":6065:6068   */\n      dup5\n        /* \"#utility.yul\":6061:6077   */\n      add\n        /* \"#utility.yul\":6054:6077   */\n      swap2\n      pop\n        /* \"#utility.yul\":5803:6083   */\n      pop\n        /* \"#utility.yul\":5693:6083   */\n      swap3\n      swap2\n      pop\n      pop\n      jump\t// out\n        /* \"#utility.yul\":6089:6240   */\n    tag_183:\n        /* \"#utility.yul\":6229:6232   */\n      0x2e00000000000000000000000000000000000000000000000000000000000000\n        /* \"#utility.yul\":6225:6226   */\n      0x00\n        /* \"#utility.yul\":6217:6223   */\n      dup3\n        /* \"#utility.yul\":6213:6227   */\n      add\n        /* \"#utility.yul\":6206:6233   */\n      mstore\n        /* \"#utility.yul\":6089:6240   */\n      pop\n      jump\t// out\n        /* \"#utility.yul\":6246:6646   */\n    tag_184:\n        /* \"#utility.yul\":6406:6409   */\n      0x00\n        /* \"#utility.yul\":6427:6511   */\n      tag_258\n        /* \"#utility.yul\":6509:6510   */\n      0x01\n        /* \"#utility.yul\":6504:6507   */\n      dup4\n        /* \"#utility.yul\":6427:6511   */\n      tag_181\n      jump\t// in\n    tag_258:\n        /* \"#utility.yul\":6420:6511   */\n      swap2\n      pop\n        /* \"#utility.yul\":6520:6613   */\n      tag_259\n        /* \"#utility.yul\":6609:6612   */\n      dup3\n        /* \"#utility.yul\":6520:6613   */\n      tag_183\n      jump\t// in\n    tag_259:\n        /* \"#utility.yul\":6638:6639   */\n      0x01\n        /* \"#utility.yul\":6633:6636   */\n      dup3\n        /* \"#utility.yul\":6629:6640   */\n      add\n        /* \"#utility.yul\":6622:6640   */\n      swap1\n      pop\n        /* \"#utility.yul\":6246:6646   */\n      swap2\n      swap1\n      pop\n      jump\t// out\n        /* \"#utility.yul\":6652:7779   */\n    tag_48:\n        /* \"#utility.yul\":7082:7085   */\n      0x00\n        /* \"#utility.yul\":7104:7199   */\n      tag_261\n        /* \"#utility.yul\":7195:7198   */\n      dup3\n        /* \"#utility.yul\":7186:7192   */\n      dup7\n        /* \"#utility.yul\":7104:7199   */\n      tag_182\n      jump\t// in\n    tag_261:\n        /* \"#utility.yul\":7097:7199   */\n      swap2\n      pop\n        /* \"#utility.yul\":7216:7364   */\n      tag_262\n        /* \"#utility.yul\":7360:7363   */\n      dup3\n        /* \"#utility.yul\":7216:7364   */\n      tag_184\n      jump\t// in\n    tag_262:\n        /* \"#utility.yul\":7209:7364   */\n      swap2\n      pop\n        /* \"#utility.yul\":7381:7476   */\n      tag_263\n        /* \"#utility.yul\":7472:7475   */\n      dup3\n        /* \"#utility.yul\":7463:7469   */\n      dup6\n        /* \"#utility.yul\":7381:7476   */\n      tag_182\n      jump\t// in\n    tag_263:\n        /* \"#utility.yul\":7374:7476   */\n      swap2\n      pop\n        /* \"#utility.yul\":7493:7641   */\n      tag_264\n        /* \"#utility.yul\":7637:7640   */\n      dup3\n        /* \"#utility.yul\":7493:7641   */\n      tag_184\n      jump\t// in\n    tag_264:\n        /* \"#utility.yul\":7486:7641   */\n      swap2\n      pop\n        /* \"#utility.yul\":7658:7753   */\n      tag_265\n        /* \"#utility.yul\":7749:7752   */\n      dup3\n        /* \"#utility.yul\":7740:7746   */\n      dup5\n        /* \"#utility.yul\":7658:7753   */\n      tag_182\n      jump\t// in\n    tag_265:\n        /* \"#utility.yul\":7651:7753   */\n      swap2\n      pop\n        /* \"#utility.yul\":7770:7773   */\n      dup2\n        /* \"#utility.yul\":7763:7773   */\n      swap1\n      pop\n        /* \"#utility.yul\":6652:7779   */\n      swap5\n      swap4\n      pop\n      pop\n      pop\n      pop\n      jump\t// out\n        /* \"#utility.yul\":7785:7965   */\n    tag_59:\n        /* \"#utility.yul\":7833:7910   */\n      0x4e487b7100000000000000000000000000000000000000000000000000000000\n        /* \"#utility.yul\":7830:7831   */\n      0x00\n        /* \"#utility.yul\":7823:7911   */\n      mstore\n        /* \"#utility.yul\":7930:7934   */\n      0x32\n        /* \"#utility.yul\":7927:7928   */\n      0x04\n        /* \"#utility.yul\":7920:7935   */\n      mstore\n        /* \"#utility.yul\":7954:7958   */\n      0x24\n        /* \"#utility.yul\":7951:7952   */\n      0x00\n        /* \"#utility.yul\":7944:7959   */\n      revert\n        /* \"#utility.yul\":7971:8088   */\n    tag_185:\n        /* \"#utility.yul\":8080:8081   */\n      0x00\n        /* \"#utility.yul\":8077:8078   */\n      0x00\n        /* \"#utility.yul\":8070:8082   */\n      revert\n        /* \"#utility.yul\":8094:8211   */\n    tag_186:\n        /* \"#utility.yul\":8203:8204   */\n      0x00\n        /* \"#utility.yul\":8200:8201   */\n      0x00\n        /* \"#utility.yul\":8193:8205   */\n      revert\n        /* \"#utility.yul\":8217:8334   */\n    tag_187:\n        /* \"#utility.yul\":8326:8327   */\n      0x00\n        /* \"#utility.yul\":8323:8324   */\n      0x00\n        /* \"#utility.yul\":8316:8328   */\n      revert\n        /* \"#utility.yul\":8340:8739   */\n    tag_65:\n        /* \"#utility.yul\":8437:8441   */\n      0x00\n        /* \"#utility.yul\":8491:8502   */\n      dup3\n        /* \"#utility.yul\":8478:8503   */\n      calldataload\n        /* \"#utility.yul\":8593:8594   */\n      0x01\n        /* \"#utility.yul\":8585:8591   */\n      0x0140\n        /* \"#utility.yul\":8581:8595   */\n      sub\n        /* \"#utility.yul\":8570:8578   */\n      dup4\n        /* \"#utility.yul\":8554:8568   */\n      calldatasize\n        /* \"#utility.yul\":8550:8579   */\n      sub\n        /* \"#utility.yul\":8546:8596   */\n      sub\n        /* \"#utility.yul\":8526:8544   */\n      dup2\n        /* \"#utility.yul\":8522:8597   */\n      slt\n        /* \"#utility.yul\":8512:8682   */\n      tag_271\n      jumpi\n        /* \"#utility.yul\":8601:8680   */\n      tag_272\n      tag_185\n      jump\t// in\n    tag_272:\n        /* \"#utility.yul\":8512:8682   */\n    tag_271:\n        /* \"#utility.yul\":8713:8731   */\n      dup1\n        /* \"#utility.yul\":8703:8711   */\n      dup4\n        /* \"#utility.yul\":8699:8732   */\n      add\n        /* \"#utility.yul\":8691:8732   */\n      swap2\n      pop\n        /* \"#utility.yul\":8442:8739   */\n      pop\n        /* \"#utility.yul\":8340:8739   */\n      swap3\n      swap2\n      pop\n      pop\n      jump\t// out\n        /* \"#utility.yul\":8745:8925   */\n    tag_100:\n        /* \"#utility.yul\":8793:8870   */\n      0x4e487b7100000000000000000000000000000000000000000000000000000000\n        /* \"#utility.yul\":8790:8791   */\n      0x00\n        /* \"#utility.yul\":8783:8871   */\n      mstore\n        /* \"#utility.yul\":8890:8894   */\n      0x41\n        /* \"#utility.yul\":8887:8888   */\n      0x04\n        /* \"#utility.yul\":8880:8895   */\n      mstore\n        /* \"#utility.yul\":8914:8918   */\n      0x24\n        /* \"#utility.yul\":8911:8912   */\n      0x00\n        /* \"#utility.yul\":8904:8919   */\n      revert\n        /* \"#utility.yul\":8931:9111   */\n    tag_106:\n        /* \"#utility.yul\":8979:9056   */\n      0x4e487b7100000000000000000000000000000000000000000000000000000000\n        /* \"#utility.yul\":8976:8977   */\n      0x00\n        /* \"#utility.yul\":8969:9057   */\n      mstore\n        /* \"#utility.yul\":9076:9080   */\n      0x12\n        /* \"#utility.yul\":9073:9074   */\n      0x04\n        /* \"#utility.yul\":9066:9081   */\n      mstore\n        /* \"#utility.yul\":9100:9104   */\n      0x24\n        /* \"#utility.yul\":9097:9098   */\n      0x00\n        /* \"#utility.yul\":9090:9105   */\n      revert\n        /* \"#utility.yul\":9117:9243   */\n    tag_188:\n        /* \"#utility.yul\":9154:9161   */\n      0x00\n        /* \"#utility.yul\":9194:9236   */\n      0xffffffffffffffffffffffffffffffffffffffff\n        /* \"#utility.yul\":9187:9192   */\n      dup3\n        /* \"#utility.yul\":9183:9237   */\n      and\n        /* \"#utility.yul\":9172:9237   */\n      swap1\n      pop\n        /* \"#utility.yul\":9117:9243   */\n      swap2\n      swap1\n      pop\n      jump\t// out\n        /* \"#utility.yul\":9249:9345   */\n    tag_189:\n        /* \"#utility.yul\":9286:9293   */\n      0x00\n        /* \"#utility.yul\":9315:9339   */\n      tag_277\n        /* \"#utility.yul\":9333:9338   */\n      dup3\n        /* \"#utility.yul\":9315:9339   */\n      tag_188\n      jump\t// in\n    tag_277:\n        /* \"#utility.yul\":9304:9339   */\n      swap1\n      pop\n        /* \"#utility.yul\":9249:9345   */\n      swap2\n      swap1\n      pop\n      jump\t// out\n        /* \"#utility.yul\":9351:9473   */\n    tag_190:\n        /* \"#utility.yul\":9424:9448   */\n      tag_279\n        /* \"#utility.yul\":9442:9447   */\n      dup2\n        /* \"#utility.yul\":9424:9448   */\n      tag_189\n      jump\t// in\n    tag_279:\n        /* \"#utility.yul\":9417:9422   */\n      dup2\n        /* \"#utility.yul\":9414:9449   */\n      eq\n        /* \"#utility.yul\":9404:9467   */\n      tag_280\n      jumpi\n        /* \"#utility.yul\":9463:9464   */\n      0x00\n        /* \"#utility.yul\":9460:9461   */\n      0x00\n        /* \"#utility.yul\":9453:9465   */\n      revert\n        /* \"#utility.yul\":9404:9467   */\n    tag_280:\n        /* \"#utility.yul\":9351:9473   */\n      pop\n      jump\t// out\n        /* \"#utility.yul\":9479:9618   */\n    tag_191:\n        /* \"#utility.yul\":9525:9530   */\n      0x00\n        /* \"#utility.yul\":9563:9569   */\n      dup2\n        /* \"#utility.yul\":9550:9570   */\n      calldataload\n        /* \"#utility.yul\":9541:9570   */\n      swap1\n      pop\n        /* \"#utility.yul\":9579:9612   */\n      tag_282\n        /* \"#utility.yul\":9606:9611   */\n      dup2\n        /* \"#utility.yul\":9579:9612   */\n      tag_190\n      jump\t// in\n    tag_282:\n        /* \"#utility.yul\":9479:9618   */\n      swap3\n      swap2\n      pop\n      pop\n      jump\t// out\n        /* \"#utility.yul\":9624:9953   */\n    tag_114:\n        /* \"#utility.yul\":9683:9689   */\n      0x00\n        /* \"#utility.yul\":9732:9734   */\n      0x20\n        /* \"#utility.yul\":9720:9729   */\n      dup3\n        /* \"#utility.yul\":9711:9718   */\n      dup5\n        /* \"#utility.yul\":9707:9730   */\n      sub\n        /* \"#utility.yul\":9703:9735   */\n      slt\n        /* \"#utility.yul\":9700:9819   */\n      iszero\n      tag_284\n      jumpi\n        /* \"#utility.yul\":9738:9817   */\n      tag_285\n      tag_170\n      jump\t// in\n    tag_285:\n        /* \"#utility.yul\":9700:9819   */\n    tag_284:\n        /* \"#utility.yul\":9858:9859   */\n      0x00\n        /* \"#utility.yul\":9883:9936   */\n      tag_286\n        /* \"#utility.yul\":9928:9935   */\n      dup5\n        /* \"#utility.yul\":9919:9925   */\n      dup3\n        /* \"#utility.yul\":9908:9917   */\n      dup6\n        /* \"#utility.yul\":9904:9926   */\n      add\n        /* \"#utility.yul\":9883:9936   */\n      tag_191\n      jump\t// in\n    tag_286:\n        /* \"#utility.yul\":9873:9936   */\n      swap2\n      pop\n        /* \"#utility.yul\":9829:9946   */\n      pop\n        /* \"#utility.yul\":9624:9953   */\n      swap3\n      swap2\n      pop\n      pop\n      jump\t// out\n        /* \"#utility.yul\":9959:10683   */\n    tag_118:\n        /* \"#utility.yul\":10036:10040   */\n      0x00\n        /* \"#utility.yul\":10042:10048   */\n      0x00\n        /* \"#utility.yul\":10098:10109   */\n      dup4\n        /* \"#utility.yul\":10085:10110   */\n      calldataload\n        /* \"#utility.yul\":10198:10199   */\n      0x01\n        /* \"#utility.yul\":10192:10196   */\n      0x20\n        /* \"#utility.yul\":10188:10200   */\n      sub\n        /* \"#utility.yul\":10177:10185   */\n      dup5\n        /* \"#utility.yul\":10161:10175   */\n      calldatasize\n        /* \"#utility.yul\":10157:10186   */\n      sub\n        /* \"#utility.yul\":10153:10201   */\n      sub\n        /* \"#utility.yul\":10133:10151   */\n      dup2\n        /* \"#utility.yul\":10129:10202   */\n      slt\n        /* \"#utility.yul\":10119:10287   */\n      tag_288\n      jumpi\n        /* \"#utility.yul\":10206:10285   */\n      tag_289\n      tag_185\n      jump\t// in\n    tag_289:\n        /* \"#utility.yul\":10119:10287   */\n    tag_288:\n        /* \"#utility.yul\":10318:10336   */\n      dup1\n        /* \"#utility.yul\":10308:10316   */\n      dup5\n        /* \"#utility.yul\":10304:10337   */\n      add\n        /* \"#utility.yul\":10296:10337   */\n      swap3\n      pop\n        /* \"#utility.yul\":10370:10374   */\n      dup3\n        /* \"#utility.yul\":10357:10375   */\n      calldataload\n        /* \"#utility.yul\":10347:10375   */\n      swap2\n      pop\n        /* \"#utility.yul\":10398:10416   */\n      0xffffffffffffffff\n        /* \"#utility.yul\":10390:10396   */\n      dup3\n        /* \"#utility.yul\":10387:10417   */\n      gt\n        /* \"#utility.yul\":10384:10501   */\n      iszero\n      tag_290\n      jumpi\n        /* \"#utility.yul\":10420:10499   */\n      tag_291\n      tag_186\n      jump\t// in\n    tag_291:\n        /* \"#utility.yul\":10384:10501   */\n    tag_290:\n        /* \"#utility.yul\":10528:10530   */\n      0x20\n        /* \"#utility.yul\":10522:10526   */\n      dup4\n        /* \"#utility.yul\":10518:10531   */\n      add\n        /* \"#utility.yul\":10510:10531   */\n      swap3\n      pop\n        /* \"#utility.yul\":10585:10589   */\n      0x01\n        /* \"#utility.yul\":10577:10583   */\n      dup3\n        /* \"#utility.yul\":10573:10590   */\n      mul\n        /* \"#utility.yul\":10557:10571   */\n      calldatasize\n        /* \"#utility.yul\":10553:10591   */\n      sub\n        /* \"#utility.yul\":10547:10551   */\n      dup4\n        /* \"#utility.yul\":10543:10592   */\n      sgt\n        /* \"#utility.yul\":10540:10676   */\n      iszero\n      tag_292\n      jumpi\n        /* \"#utility.yul\":10595:10674   */\n      tag_293\n      tag_187\n      jump\t// in\n    tag_293:\n        /* \"#utility.yul\":10540:10676   */\n    tag_292:\n        /* \"#utility.yul\":10049:10683   */\n      pop\n        /* \"#utility.yul\":9959:10683   */\n      swap3\n      pop\n      swap3\n      swap1\n      pop\n      jump\t// out\n        /* \"#utility.yul\":10689:10832   */\n    tag_192:\n        /* \"#utility.yul\":10746:10751   */\n      0x00\n        /* \"#utility.yul\":10777:10783   */\n      dup2\n        /* \"#utility.yul\":10771:10784   */\n      mload\n        /* \"#utility.yul\":10762:10784   */\n      swap1\n      pop\n        /* \"#utility.yul\":10793:10826   */\n      tag_295\n        /* \"#utility.yul\":10820:10825   */\n      dup2\n        /* \"#utility.yul\":10793:10826   */\n      tag_190\n      jump\t// in\n    tag_295:\n        /* \"#utility.yul\":10689:10832   */\n      swap3\n      swap2\n      pop\n      pop\n      jump\t// out\n        /* \"#utility.yul\":10838:11189   */\n    tag_130:\n        /* \"#utility.yul\":10908:10914   */\n      0x00\n        /* \"#utility.yul\":10957:10959   */\n      0x20\n        /* \"#utility.yul\":10945:10954   */\n      dup3\n        /* \"#utility.yul\":10936:10943   */\n      dup5\n        /* \"#utility.yul\":10932:10955   */\n      sub\n        /* \"#utility.yul\":10928:10960   */\n      slt\n        /* \"#utility.yul\":10925:11044   */\n      iszero\n      tag_297\n      jumpi\n        /* \"#utility.yul\":10963:11042   */\n      tag_298\n      tag_170\n      jump\t// in\n    tag_298:\n        /* \"#utility.yul\":10925:11044   */\n    tag_297:\n        /* \"#utility.yul\":11083:11084   */\n      0x00\n        /* \"#utility.yul\":11108:11172   */\n      tag_299\n        /* \"#utility.yul\":11164:11171   */\n      dup5\n        /* \"#utility.yul\":11155:11161   */\n      dup3\n        /* \"#utility.yul\":11144:11153   */\n      dup6\n        /* \"#utility.yul\":11140:11162   */\n      add\n        /* \"#utility.yul\":11108:11172   */\n      tag_192\n      jump\t// in\n    tag_299:\n        /* \"#utility.yul\":11098:11172   */\n      swap2\n      pop\n        /* \"#utility.yul\":11054:11182   */\n      pop\n        /* \"#utility.yul\":10838:11189   */\n      swap3\n      swap2\n      pop\n      pop\n      jump\t// out\n        /* \"#utility.yul\":11195:11359   */\n    tag_193:\n        /* \"#utility.yul\":11335:11351   */\n      0x4461746120746f6f2073686f7274000000000000000000000000000000000000\n        /* \"#utility.yul\":11331:11332   */\n      0x00\n        /* \"#utility.yul\":11323:11329   */\n      dup3\n        /* \"#utility.yul\":11319:11333   */\n      add\n        /* \"#utility.yul\":11312:11352   */\n      mstore\n        /* \"#utility.yul\":11195:11359   */\n      pop\n      jump\t// out\n        /* \"#utility.yul\":11365:11731   */\n    tag_194:\n        /* \"#utility.yul\":11507:11510   */\n      0x00\n        /* \"#utility.yul\":11528:11595   */\n      tag_302\n        /* \"#utility.yul\":11592:11594   */\n      0x0e\n        /* \"#utility.yul\":11587:11590   */\n      dup4\n        /* \"#utility.yul\":11528:11595   */\n      tag_165\n      jump\t// in\n    tag_302:\n        /* \"#utility.yul\":11521:11595   */\n      swap2\n      pop\n        /* \"#utility.yul\":11604:11697   */\n      tag_303\n        /* \"#utility.yul\":11693:11696   */\n      dup3\n        /* \"#utility.yul\":11604:11697   */\n      tag_193\n      jump\t// in\n    tag_303:\n        /* \"#utility.yul\":11722:11724   */\n      0x20\n        /* \"#utility.yul\":11717:11720   */\n      dup3\n        /* \"#utility.yul\":11713:11725   */\n      add\n        /* \"#utility.yul\":11706:11725   */\n      swap1\n      pop\n        /* \"#utility.yul\":11365:11731   */\n      swap2\n      swap1\n      pop\n      jump\t// out\n        /* \"#utility.yul\":11737:12156   */\n    tag_160:\n        /* \"#utility.yul\":11903:11907   */\n      0x00\n        /* \"#utility.yul\":11941:11943   */\n      0x20\n        /* \"#utility.yul\":11930:11939   */\n      dup3\n        /* \"#utility.yul\":11926:11944   */\n      add\n        /* \"#utility.yul\":11918:11944   */\n      swap1\n      pop\n        /* \"#utility.yul\":11990:11999   */\n      dup2\n        /* \"#utility.yul\":11984:11988   */\n      dup2\n        /* \"#utility.yul\":11980:12000   */\n      sub\n        /* \"#utility.yul\":11976:11977   */\n      0x00\n        /* \"#utility.yul\":11965:11974   */\n      dup4\n        /* \"#utility.yul\":11961:11978   */\n      add\n        /* \"#utility.yul\":11954:12001   */\n      mstore\n        /* \"#utility.yul\":12018:12149   */\n      tag_305\n        /* \"#utility.yul\":12144:12148   */\n      dup2\n        /* \"#utility.yul\":12018:12149   */\n      tag_194\n      jump\t// in\n    tag_305:\n        /* \"#utility.yul\":12010:12149   */\n      swap1\n      pop\n        /* \"#utility.yul\":11737:12156   */\n      swap2\n      swap1\n      pop\n      jump\t// out\n\n    auxdata: 0xa26469706673582212202a165b211f8d2842f57d20db383511ebb4d61eef2f4caee4a6e869de0a5021ad64736f6c634300081b0033\n}\n",
				"bytecode": {
					"linkReferences": {},
					"object": "610100604052348015610010575f5ffd5b506040516111ee3803806111ee83398181016040528101906100329190610162565b80600160035f82608081815250508160a081815250508060c081815250505050505f73ffffffffffffffffffffffffffffffffffffffff168173ffffffffffffffffffffffffffffffffffffffff16036100b8576040517f83780ffe00000000000000000000000000000000000000000000000000000000815260040160405180910390fd5b8073ffffffffffffffffffffffffffffffffffffffff1660e08173ffffffffffffffffffffffffffffffffffffffff1681525050505061018d565b5f5ffd5b5f73ffffffffffffffffffffffffffffffffffffffff82169050919050565b5f610120826100f7565b9050919050565b5f61013182610116565b9050919050565b61014181610127565b811461014b575f5ffd5b50565b5f8151905061015c81610138565b92915050565b5f60208284031215610177576101766100f3565b5b5f6101848482850161014e565b91505092915050565b60805160a05160c05160e05161102e6101c05f395f61058f01525f61021501525f6101ec01525f6101c3015261102e5ff3fe608060405260043610610058575f3560e01c806354fd4d50146100a157806388e5b2d9146100cb57806391db0b7e146100fb578063ce46e0461461012b578063e49617e114610155578063e60c3505146101855761009d565b3661009d576100656101b5565b61009b576040517f1574f9f300000000000000000000000000000000000000000000000000000000815260040160405180910390fd5b005b5f5ffd5b3480156100ac575f5ffd5b506100b56101bc565b6040516100c29190610aec565b60405180910390f35b6100e560048036038101906100e09190610bca565b61025f565b6040516100f29190610c62565b60405180910390f35b61011560048036038101906101109190610bca565b610377565b6040516101229190610c62565b60405180910390f35b348015610136575f5ffd5b5061013f6101b5565b60405161014c9190610c62565b60405180910390f35b61016f600480360381019061016a9190610c9e565b61048f565b60405161017c9190610c62565b60405180910390f35b61019f600480360381019061019a9190610c9e565b6104a9565b6040516101ac9190610c62565b60405180910390f35b5f5f905090565b60606101e77f00000000000000000000000000000000000000000000000000000000000000006104c3565b6102107f00000000000000000000000000000000000000000000000000000000000000006104c3565b6102397f00000000000000000000000000000000000000000000000000000000000000006104c3565b60405160200161024b93929190610d69565b604051602081830303815290604052905090565b5f61026861058d565b5f8585905090508383905081146102ab576040517f947d5a8400000000000000000000000000000000000000000000000000000000815260040160405180910390fd5b5f3490505f5f90505b82811015610367575f8686838181106102d0576102cf610daf565b5b90506020020135905082811115610313576040517f1101129400000000000000000000000000000000000000000000000000000000815260040160405180910390fd5b61034189898481811061032957610328610daf565b5b905060200281019061033b9190610de8565b82610614565b610351575f94505050505061036f565b8083039250506103608161061f565b90506102b4565b506001925050505b949350505050565b5f61038061058d565b5f8585905090508383905081146103c3576040517f947d5a8400000000000000000000000000000000000000000000000000000000815260040160405180910390fd5b5f3490505f5f90505b8281101561047f575f8686838181106103e8576103e7610daf565b5b9050602002013590508281111561042b576040517f1101129400000000000000000000000000000000000000000000000000000000815260040160405180910390fd5b61045989898481811061044157610440610daf565b5b90506020028101906104539190610de8565b8261062b565b610469575f945050505050610487565b8083039250506104788161061f565b90506103cc565b506001925050505b949350505050565b5f61049861058d565b6104a28234610614565b9050919050565b5f6104b261058d565b6104bc823461062b565b9050919050565b60605f60016104d184610870565b0190505f8167ffffffffffffffff8111156104ef576104ee610e10565b5b6040519080825280601f01601f1916602001820160405280156105215781602001600182028036833780820191505090505b5090505f82602001820190505b600115610582578080600190039150507f3031323334353637383961626364656600000000000000000000000000000000600a86061a8153600a858161057757610576610e3d565b5b0494505f850361052e575b819350505050919050565b7f000000000000000000000000000000000000000000000000000000000000000073ffffffffffffffffffffffffffffffffffffffff163373ffffffffffffffffffffffffffffffffffffffff1614610612576040517f4ca8886700000000000000000000000000000000000000000000000000000000815260040160405180910390fd5b565b5f6001905092915050565b5f600182019050919050565b5f5f73ffffffffffffffffffffffffffffffffffffffff168360c00160208101906106569190610ec4565b73ffffffffffffffffffffffffffffffffffffffff1603610679575f905061086a565b5f6106d58480610120019061068e9190610eef565b8080601f0160208091040260200160405190810160405280939291908181526020018383808284375f81840152601f19601f820116905080830192505050505050506109c1565b9050806106e657600191505061086a565b5f8460c00160208101906106fa9190610ec4565b73ffffffffffffffffffffffffffffffffffffffff163b0361071f575f91505061086a565b5f4690505f61077f868061012001906107389190610eef565b8080601f0160208091040260200160405190810160405280939291908181526020018383808284375f81840152601f19601f82011690508083019250505050505050610a23565b9050808214610793575f935050505061086a565b5f8660c00160208101906107a79190610ec4565b90508073ffffffffffffffffffffffffffffffffffffffff16638da5cb5b6040518163ffffffff1660e01b8152600401602060405180830381865afa92505050801561081157506040513d601f19601f8201168201806040525081019061080e9190610f65565b60015b610821575f94505050505061086a565b8073ffffffffffffffffffffffffffffffffffffffff168860e001602081019061084b9190610ec4565b73ffffffffffffffffffffffffffffffffffffffff1614955050505050505b92915050565b5f5f5f90507a184f03e93ff9f4daa797ed6e38ed64bf6a1f01000000000000000083106108cc577a184f03e93ff9f4daa797ed6e38ed64bf6a1f01000000000000000083816108c2576108c1610e3d565b5b0492506040810190505b6d04ee2d6d415b85acef81000000008310610909576d04ee2d6d415b85acef810000000083816108ff576108fe610e3d565b5b0492506020810190505b662386f26fc10000831061093857662386f26fc10000838161092e5761092d610e3d565b5b0492506010810190505b6305f5e1008310610961576305f5e100838161095757610956610e3d565b5b0492506008810190505b612710831061098657612710838161097c5761097b610e3d565b5b0492506004810190505b606483106109a9576064838161099f5761099e610e3d565b5b0492506002810190505b600a83106109b8576001810190505b80915050919050565b5f61012082511015610a08576040517f08c379a00000000000000000000000000000000000000000000000000000000081526004016109ff90610fda565b60405180910390fd5b5f610120830151905060018116905060018114915050919050565b5f61010082511015610a6a576040517f08c379a0000000000000000000000000000000000000000000000000000000008152600401610a6190610fda565b60405180910390fd5b5f610100830151905080915050919050565b5f81519050919050565b5f82825260208201905092915050565b8281835e5f83830152505050565b5f601f19601f8301169050919050565b5f610abe82610a7c565b610ac88185610a86565b9350610ad8818560208601610a96565b610ae181610aa4565b840191505092915050565b5f6020820190508181035f830152610b048184610ab4565b905092915050565b5f5ffd5b5f5ffd5b5f5ffd5b5f5ffd5b5f5ffd5b5f5f83601f840112610b3557610b34610b14565b5b8235905067ffffffffffffffff811115610b5257610b51610b18565b5b602083019150836020820283011115610b6e57610b6d610b1c565b5b9250929050565b5f5f83601f840112610b8a57610b89610b14565b5b8235905067ffffffffffffffff811115610ba757610ba6610b18565b5b602083019150836020820283011115610bc357610bc2610b1c565b5b9250929050565b5f5f5f5f60408587031215610be257610be1610b0c565b5b5f85013567ffffffffffffffff811115610bff57610bfe610b10565b5b610c0b87828801610b20565b9450945050602085013567ffffffffffffffff811115610c2e57610c2d610b10565b5b610c3a87828801610b75565b925092505092959194509250565b5f8115159050919050565b610c5c81610c48565b82525050565b5f602082019050610c755f830184610c53565b92915050565b5f5ffd5b5f6101408284031215610c9557610c94610c7b565b5b81905092915050565b5f60208284031215610cb357610cb2610b0c565b5b5f82013567ffffffffffffffff811115610cd057610ccf610b10565b5b610cdc84828501610c7f565b91505092915050565b5f81905092915050565b5f610cf982610a7c565b610d038185610ce5565b9350610d13818560208601610a96565b80840191505092915050565b7f2e000000000000000000000000000000000000000000000000000000000000005f82015250565b5f610d53600183610ce5565b9150610d5e82610d1f565b600182019050919050565b5f610d748286610cef565b9150610d7f82610d47565b9150610d8b8285610cef565b9150610d9682610d47565b9150610da28284610cef565b9150819050949350505050565b7f4e487b71000000000000000000000000000000000000000000000000000000005f52603260045260245ffd5b5f5ffd5b5f5ffd5b5f5ffd5b5f8235600161014003833603038112610e0457610e03610ddc565b5b80830191505092915050565b7f4e487b71000000000000000000000000000000000000000000000000000000005f52604160045260245ffd5b7f4e487b71000000000000000000000000000000000000000000000000000000005f52601260045260245ffd5b5f73ffffffffffffffffffffffffffffffffffffffff82169050919050565b5f610e9382610e6a565b9050919050565b610ea381610e89565b8114610ead575f5ffd5b50565b5f81359050610ebe81610e9a565b92915050565b5f60208284031215610ed957610ed8610b0c565b5b5f610ee684828501610eb0565b91505092915050565b5f5f83356001602003843603038112610f0b57610f0a610ddc565b5b80840192508235915067ffffffffffffffff821115610f2d57610f2c610de0565b5b602083019250600182023603831315610f4957610f48610de4565b5b509250929050565b5f81519050610f5f81610e9a565b92915050565b5f60208284031215610f7a57610f79610b0c565b5b5f610f8784828501610f51565b91505092915050565b7f4461746120746f6f2073686f72740000000000000000000000000000000000005f82015250565b5f610fc4600e83610a86565b9150610fcf82610f90565b602082019050919050565b5f6020820190508181035f830152610ff181610fb8565b905091905056fea26469706673582212202a165b211f8d2842f57d20db383511ebb4d61eef2f4caee4a6e869de0a5021ad64736f6c634300081b0033",
					"opcodes": "PUSH2 0x100 PUSH1 0x40 MSTORE CALLVALUE DUP1 ISZERO PUSH2 0x10 JUMPI PUSH0 PUSH0 REVERT JUMPDEST POP PUSH1 0x40 MLOAD PUSH2 0x11EE CODESIZE SUB DUP1 PUSH2 0x11EE DUP4 CODECOPY DUP2 DUP2 ADD PUSH1 0x40 MSTORE DUP2 ADD SWAP1 PUSH2 0x32 SWAP2 SWAP1 PUSH2 0x162 JUMP JUMPDEST DUP1 PUSH1 0x1 PUSH1 0x3 PUSH0 DUP3 PUSH1 0x80 DUP2 DUP2 MSTORE POP POP DUP2 PUSH1 0xA0 DUP2 DUP2 MSTORE POP POP DUP1 PUSH1 0xC0 DUP2 DUP2 MSTORE POP POP POP POP POP PUSH0 PUSH20 0xFFFFFFFFFFFFFFFFFFFFFFFFFFFFFFFFFFFFFFFF AND DUP2 PUSH20 0xFFFFFFFFFFFFFFFFFFFFFFFFFFFFFFFFFFFFFFFF AND SUB PUSH2 0xB8 JUMPI PUSH1 0x40 MLOAD PUSH32 0x83780FFE00000000000000000000000000000000000000000000000000000000 DUP2 MSTORE PUSH1 0x4 ADD PUSH1 0x40 MLOAD DUP1 SWAP2 SUB SWAP1 REVERT JUMPDEST DUP1 PUSH20 0xFFFFFFFFFFFFFFFFFFFFFFFFFFFFFFFFFFFFFFFF AND PUSH1 0xE0 DUP2 PUSH20 0xFFFFFFFFFFFFFFFFFFFFFFFFFFFFFFFFFFFFFFFF AND DUP2 MSTORE POP POP POP POP PUSH2 0x18D JUMP JUMPDEST PUSH0 PUSH0 REVERT JUMPDEST PUSH0 PUSH20 0xFFFFFFFFFFFFFFFFFFFFFFFFFFFFFFFFFFFFFFFF DUP3 AND SWAP1 POP SWAP2 SWAP1 POP JUMP JUMPDEST PUSH0 PUSH2 0x120 DUP3 PUSH2 0xF7 JUMP JUMPDEST SWAP1 POP SWAP2 SWAP1 POP JUMP JUMPDEST PUSH0 PUSH2 0x131 DUP3 PUSH2 0x116 JUMP JUMPDEST SWAP1 POP SWAP2 SWAP1 POP JUMP JUMPDEST PUSH2 0x141 DUP2 PUSH2 0x127 JUMP JUMPDEST DUP2 EQ PUSH2 0x14B JUMPI PUSH0 PUSH0 REVERT JUMPDEST POP JUMP JUMPDEST PUSH0 DUP2 MLOAD SWAP1 POP PUSH2 0x15C DUP2 PUSH2 0x138 JUMP JUMPDEST SWAP3 SWAP2 POP POP JUMP JUMPDEST PUSH0 PUSH1 0x20 DUP3 DUP5 SUB SLT ISZERO PUSH2 0x177 JUMPI PUSH2 0x176 PUSH2 0xF3 JUMP JUMPDEST JUMPDEST PUSH0 PUSH2 0x184 DUP5 DUP3 DUP6 ADD PUSH2 0x14E JUMP JUMPDEST SWAP2 POP POP SWAP3 SWAP2 POP POP JUMP JUMPDEST PUSH1 0x80 MLOAD PUSH1 0xA0 MLOAD PUSH1 0xC0 MLOAD PUSH1 0xE0 MLOAD PUSH2 0x102E PUSH2 0x1C0 PUSH0 CODECOPY PUSH0 PUSH2 0x58F ADD MSTORE PUSH0 PUSH2 0x215 ADD MSTORE PUSH0 PUSH2 0x1EC ADD MSTORE PUSH0 PUSH2 0x1C3 ADD MSTORE PUSH2 0x102E PUSH0 RETURN INVALID PUSH1 0x80 PUSH1 0x40 MSTORE PUSH1 0x4 CALLDATASIZE LT PUSH2 0x58 JUMPI PUSH0 CALLDATALOAD PUSH1 0xE0 SHR DUP1 PUSH4 0x54FD4D50 EQ PUSH2 0xA1 JUMPI DUP1 PUSH4 0x88E5B2D9 EQ PUSH2 0xCB JUMPI DUP1 PUSH4 0x91DB0B7E EQ PUSH2 0xFB JUMPI DUP1 PUSH4 0xCE46E046 EQ PUSH2 0x12B JUMPI DUP1 PUSH4 0xE49617E1 EQ PUSH2 0x155 JUMPI DUP1 PUSH4 0xE60C3505 EQ PUSH2 0x185 JUMPI PUSH2 0x9D JUMP JUMPDEST CALLDATASIZE PUSH2 0x9D JUMPI PUSH2 0x65 PUSH2 0x1B5 JUMP JUMPDEST PUSH2 0x9B JUMPI PUSH1 0x40 MLOAD PUSH32 0x1574F9F300000000000000000000000000000000000000000000000000000000 DUP2 MSTORE PUSH1 0x4 ADD PUSH1 0x40 MLOAD DUP1 SWAP2 SUB SWAP1 REVERT JUMPDEST STOP JUMPDEST PUSH0 PUSH0 REVERT JUMPDEST CALLVALUE DUP1 ISZERO PUSH2 0xAC JUMPI PUSH0 PUSH0 REVERT JUMPDEST POP PUSH2 0xB5 PUSH2 0x1BC JUMP JUMPDEST PUSH1 0x40 MLOAD PUSH2 0xC2 SWAP2 SWAP1 PUSH2 0xAEC JUMP JUMPDEST PUSH1 0x40 MLOAD DUP1 SWAP2 SUB SWAP1 RETURN JUMPDEST PUSH2 0xE5 PUSH1 0x4 DUP1 CALLDATASIZE SUB DUP2 ADD SWAP1 PUSH2 0xE0 SWAP2 SWAP1 PUSH2 0xBCA JUMP JUMPDEST PUSH2 0x25F JUMP JUMPDEST PUSH1 0x40 MLOAD PUSH2 0xF2 SWAP2 SWAP1 PUSH2 0xC62 JUMP JUMPDEST PUSH1 0x40 MLOAD DUP1 SWAP2 SUB SWAP1 RETURN JUMPDEST PUSH2 0x115 PUSH1 0x4 DUP1 CALLDATASIZE SUB DUP2 ADD SWAP1 PUSH2 0x110 SWAP2 SWAP1 PUSH2 0xBCA JUMP JUMPDEST PUSH2 0x377 JUMP JUMPDEST PUSH1 0x40 MLOAD PUSH2 0x122 SWAP2 SWAP1 PUSH2 0xC62 JUMP JUMPDEST PUSH1 0x40 MLOAD DUP1 SWAP2 SUB SWAP1 RETURN JUMPDEST CALLVALUE DUP1 ISZERO PUSH2 0x136 JUMPI PUSH0 PUSH0 REVERT JUMPDEST POP PUSH2 0x13F PUSH2 0x1B5 JUMP JUMPDEST PUSH1 0x40 MLOAD PUSH2 0x14C SWAP2 SWAP1 PUSH2 0xC62 JUMP JUMPDEST PUSH1 0x40 MLOAD DUP1 SWAP2 SUB SWAP1 RETURN JUMPDEST PUSH2 0x16F PUSH1 0x4 DUP1 CALLDATASIZE SUB DUP2 ADD SWAP1 PUSH2 0x16A SWAP2 SWAP1 PUSH2 0xC9E JUMP JUMPDEST PUSH2 0x48F JUMP JUMPDEST PUSH1 0x40 MLOAD PUSH2 0x17C SWAP2 SWAP1 PUSH2 0xC62 JUMP JUMPDEST PUSH1 0x40 MLOAD DUP1 SWAP2 SUB SWAP1 RETURN JUMPDEST PUSH2 0x19F PUSH1 0x4 DUP1 CALLDATASIZE SUB DUP2 ADD SWAP1 PUSH2 0x19A SWAP2 SWAP1 PUSH2 0xC9E JUMP JUMPDEST PUSH2 0x4A9 JUMP JUMPDEST PUSH1 0x40 MLOAD PUSH2 0x1AC SWAP2 SWAP1 PUSH2 0xC62 JUMP JUMPDEST PUSH1 0x40 MLOAD DUP1 SWAP2 SUB SWAP1 RETURN JUMPDEST PUSH0 PUSH0 SWAP1 POP SWAP1 JUMP JUMPDEST PUSH1 0x60 PUSH2 0x1E7 PUSH32 0x0 PUSH2 0x4C3 JUMP JUMPDEST PUSH2 0x210 PUSH32 0x0 PUSH2 0x4C3 JUMP JUMPDEST PUSH2 0x239 PUSH32 0x0 PUSH2 0x4C3 JUMP JUMPDEST PUSH1 0x40 MLOAD PUSH1 0x20 ADD PUSH2 0x24B SWAP4 SWAP3 SWAP2 SWAP1 PUSH2 0xD69 JUMP JUMPDEST PUSH1 0x40 MLOAD PUSH1 0x20 DUP2 DUP4 SUB SUB DUP2 MSTORE SWAP1 PUSH1 0x40 MSTORE SWAP1 POP SWAP1 JUMP JUMPDEST PUSH0 PUSH2 0x268 PUSH2 0x58D JUMP JUMPDEST PUSH0 DUP6 DUP6 SWAP1 POP SWAP1 POP DUP4 DUP4 SWAP1 POP DUP2 EQ PUSH2 0x2AB JUMPI PUSH1 0x40 MLOAD PUSH32 0x947D5A8400000000000000000000000000000000000000000000000000000000 DUP2 MSTORE PUSH1 0x4 ADD PUSH1 0x40 MLOAD DUP1 SWAP2 SUB SWAP1 REVERT JUMPDEST PUSH0 CALLVALUE SWAP1 POP PUSH0 PUSH0 SWAP1 POP JUMPDEST DUP3 DUP2 LT ISZERO PUSH2 0x367 JUMPI PUSH0 DUP7 DUP7 DUP4 DUP2 DUP2 LT PUSH2 0x2D0 JUMPI PUSH2 0x2CF PUSH2 0xDAF JUMP JUMPDEST JUMPDEST SWAP1 POP PUSH1 0x20 MUL ADD CALLDATALOAD SWAP1 POP DUP3 DUP2 GT ISZERO PUSH2 0x313 JUMPI PUSH1 0x40 MLOAD PUSH32 0x1101129400000000000000000000000000000000000000000000000000000000 DUP2 MSTORE PUSH1 0x4 ADD PUSH1 0x40 MLOAD DUP1 SWAP2 SUB SWAP1 REVERT JUMPDEST PUSH2 0x341 DUP10 DUP10 DUP5 DUP2 DUP2 LT PUSH2 0x329 JUMPI PUSH2 0x328 PUSH2 0xDAF JUMP JUMPDEST JUMPDEST SWAP1 POP PUSH1 0x20 MUL DUP2 ADD SWAP1 PUSH2 0x33B SWAP2 SWAP1 PUSH2 0xDE8 JUMP JUMPDEST DUP3 PUSH2 0x614 JUMP JUMPDEST PUSH2 0x351 JUMPI PUSH0 SWAP5 POP POP POP POP POP PUSH2 0x36F JUMP JUMPDEST DUP1 DUP4 SUB SWAP3 POP POP PUSH2 0x360 DUP2 PUSH2 0x61F JUMP JUMPDEST SWAP1 POP PUSH2 0x2B4 JUMP JUMPDEST POP PUSH1 0x1 SWAP3 POP POP POP JUMPDEST SWAP5 SWAP4 POP POP POP POP JUMP JUMPDEST PUSH0 PUSH2 0x380 PUSH2 0x58D JUMP JUMPDEST PUSH0 DUP6 DUP6 SWAP1 POP SWAP1 POP DUP4 DUP4 SWAP1 POP DUP2 EQ PUSH2 0x3C3 JUMPI PUSH1 0x40 MLOAD PUSH32 0x947D5A8400000000000000000000000000000000000000000000000000000000 DUP2 MSTORE PUSH1 0x4 ADD PUSH1 0x40 MLOAD DUP1 SWAP2 SUB SWAP1 REVERT JUMPDEST PUSH0 CALLVALUE SWAP1 POP PUSH0 PUSH0 SWAP1 POP JUMPDEST DUP3 DUP2 LT ISZERO PUSH2 0x47F JUMPI PUSH0 DUP7 DUP7 DUP4 DUP2 DUP2 LT PUSH2 0x3E8 JUMPI PUSH2 0x3E7 PUSH2 0xDAF JUMP JUMPDEST JUMPDEST SWAP1 POP PUSH1 0x20 MUL ADD CALLDATALOAD SWAP1 POP DUP3 DUP2 GT ISZERO PUSH2 0x42B JUMPI PUSH1 0x40 MLOAD PUSH32 0x1101129400000000000000000000000000000000000000000000000000000000 DUP2 MSTORE PUSH1 0x4 ADD PUSH1 0x40 MLOAD DUP1 SWAP2 SUB SWAP1 REVERT JUMPDEST PUSH2 0x459 DUP10 DUP10 DUP5 DUP2 DUP2 LT PUSH2 0x441 JUMPI PUSH2 0x440 PUSH2 0xDAF JUMP JUMPDEST JUMPDEST SWAP1 POP PUSH1 0x20 MUL DUP2 ADD SWAP1 PUSH2 0x453 SWAP2 SWAP1 PUSH2 0xDE8 JUMP JUMPDEST DUP3 PUSH2 0x62B JUMP JUMPDEST PUSH2 0x469 JUMPI PUSH0 SWAP5 POP POP POP POP POP PUSH2 0x487 JUMP JUMPDEST DUP1 DUP4 SUB SWAP3 POP POP PUSH2 0x478 DUP2 PUSH2 0x61F JUMP JUMPDEST SWAP1 POP PUSH2 0x3CC JUMP JUMPDEST POP PUSH1 0x1 SWAP3 POP POP POP JUMPDEST SWAP5 SWAP4 POP POP POP POP JUMP JUMPDEST PUSH0 PUSH2 0x498 PUSH2 0x58D JUMP JUMPDEST PUSH2 0x4A2 DUP3 CALLVALUE PUSH2 0x614 JUMP JUMPDEST SWAP1 POP SWAP2 SWAP1 POP JUMP JUMPDEST PUSH0 PUSH2 0x4B2 PUSH2 0x58D JUMP JUMPDEST PUSH2 0x4BC DUP3 CALLVALUE PUSH2 0x62B JUMP JUMPDEST SWAP1 POP SWAP2 SWAP1 POP JUMP JUMPDEST PUSH1 0x60 PUSH0 PUSH1 0x1 PUSH2 0x4D1 DUP5 PUSH2 0x870 JUMP JUMPDEST ADD SWAP1 POP PUSH0 DUP2 PUSH8 0xFFFFFFFFFFFFFFFF DUP2 GT ISZERO PUSH2 0x4EF JUMPI PUSH2 0x4EE PUSH2 0xE10 JUMP JUMPDEST JUMPDEST PUSH1 0x40 MLOAD SWAP1 DUP1 DUP3 MSTORE DUP1 PUSH1 0x1F ADD PUSH1 0x1F NOT AND PUSH1 0x20 ADD DUP3 ADD PUSH1 0x40 MSTORE DUP1 ISZERO PUSH2 0x521 JUMPI DUP2 PUSH1 0x20 ADD PUSH1 0x1 DUP3 MUL DUP1 CALLDATASIZE DUP4 CALLDATACOPY DUP1 DUP3 ADD SWAP2 POP POP SWAP1 POP JUMPDEST POP SWAP1 POP PUSH0 DUP3 PUSH1 0x20 ADD DUP3 ADD SWAP1 POP JUMPDEST PUSH1 0x1 ISZERO PUSH2 0x582 JUMPI DUP1 DUP1 PUSH1 0x1 SWAP1 SUB SWAP2 POP POP PUSH32 0x3031323334353637383961626364656600000000000000000000000000000000 PUSH1 0xA DUP7 MOD BYTE DUP2 MSTORE8 PUSH1 0xA DUP6 DUP2 PUSH2 0x577 JUMPI PUSH2 0x576 PUSH2 0xE3D JUMP JUMPDEST JUMPDEST DIV SWAP5 POP PUSH0 DUP6 SUB PUSH2 0x52E JUMPI JUMPDEST DUP2 SWAP4 POP POP POP POP SWAP2 SWAP1 POP JUMP JUMPDEST PUSH32 0x0 PUSH20 0xFFFFFFFFFFFFFFFFFFFFFFFFFFFFFFFFFFFFFFFF AND CALLER PUSH20 0xFFFFFFFFFFFFFFFFFFFFFFFFFFFFFFFFFFFFFFFF AND EQ PUSH2 0x612 JUMPI PUSH1 0x40 MLOAD PUSH32 0x4CA8886700000000000000000000000000000000000000000000000000000000 DUP2 MSTORE PUSH1 0x4 ADD PUSH1 0x40 MLOAD DUP1 SWAP2 SUB SWAP1 REVERT JUMPDEST JUMP JUMPDEST PUSH0 PUSH1 0x1 SWAP1 POP SWAP3 SWAP2 POP POP JUMP JUMPDEST PUSH0 PUSH1 0x1 DUP3 ADD SWAP1 POP SWAP2 SWAP1 POP JUMP JUMPDEST PUSH0 PUSH0 PUSH20 0xFFFFFFFFFFFFFFFFFFFFFFFFFFFFFFFFFFFFFFFF AND DUP4 PUSH1 0xC0 ADD PUSH1 0x20 DUP2 ADD SWAP1 PUSH2 0x656 SWAP2 SWAP1 PUSH2 0xEC4 JUMP JUMPDEST PUSH20 0xFFFFFFFFFFFFFFFFFFFFFFFFFFFFFFFFFFFFFFFF AND SUB PUSH2 0x679 JUMPI PUSH0 SWAP1 POP PUSH2 0x86A JUMP JUMPDEST PUSH0 PUSH2 0x6D5 DUP5 DUP1 PUSH2 0x120 ADD SWAP1 PUSH2 0x68E SWAP2 SWAP1 PUSH2 0xEEF JUMP JUMPDEST DUP1 DUP1 PUSH1 0x1F ADD PUSH1 0x20 DUP1 SWAP2 DIV MUL PUSH1 0x20 ADD PUSH1 0x40 MLOAD SWAP1 DUP2 ADD PUSH1 0x40 MSTORE DUP1 SWAP4 SWAP3 SWAP2 SWAP1 DUP2 DUP2 MSTORE PUSH1 0x20 ADD DUP4 DUP4 DUP1 DUP3 DUP5 CALLDATACOPY PUSH0 DUP2 DUP5 ADD MSTORE PUSH1 0x1F NOT PUSH1 0x1F DUP3 ADD AND SWAP1 POP DUP1 DUP4 ADD SWAP3 POP POP POP POP POP POP POP PUSH2 0x9C1 JUMP JUMPDEST SWAP1 POP DUP1 PUSH2 0x6E6 JUMPI PUSH1 0x1 SWAP2 POP POP PUSH2 0x86A JUMP JUMPDEST PUSH0 DUP5 PUSH1 0xC0 ADD PUSH1 0x20 DUP2 ADD SWAP1 PUSH2 0x6FA SWAP2 SWAP1 PUSH2 0xEC4 JUMP JUMPDEST PUSH20 0xFFFFFFFFFFFFFFFFFFFFFFFFFFFFFFFFFFFFFFFF AND EXTCODESIZE SUB PUSH2 0x71F JUMPI PUSH0 SWAP2 POP POP PUSH2 0x86A JUMP JUMPDEST PUSH0 CHAINID SWAP1 POP PUSH0 PUSH2 0x77F DUP7 DUP1 PUSH2 0x120 ADD SWAP1 PUSH2 0x738 SWAP2 SWAP1 PUSH2 0xEEF JUMP JUMPDEST DUP1 DUP1 PUSH1 0x1F ADD PUSH1 0x20 DUP1 SWAP2 DIV MUL PUSH1 0x20 ADD PUSH1 0x40 MLOAD SWAP1 DUP2 ADD PUSH1 0x40 MSTORE DUP1 SWAP4 SWAP3 SWAP2 SWAP1 DUP2 DUP2 MSTORE PUSH1 0x20 ADD DUP4 DUP4 DUP1 DUP3 DUP5 CALLDATACOPY PUSH0 DUP2 DUP5 ADD MSTORE PUSH1 0x1F NOT PUSH1 0x1F DUP3 ADD AND SWAP1 POP DUP1 DUP4 ADD SWAP3 POP POP POP POP POP POP POP PUSH2 0xA23 JUMP JUMPDEST SWAP1 POP DUP1 DUP3 EQ PUSH2 0x793 JUMPI PUSH0 SWAP4 POP POP POP POP PUSH2 0x86A JUMP JUMPDEST PUSH0 DUP7 PUSH1 0xC0 ADD PUSH1 0x20 DUP2 ADD SWAP1 PUSH2 0x7A7 SWAP2 SWAP1 PUSH2 0xEC4 JUMP JUMPDEST SWAP1 POP DUP1 PUSH20 0xFFFFFFFFFFFFFFFFFFFFFFFFFFFFFFFFFFFFFFFF AND PUSH4 0x8DA5CB5B PUSH1 0x40 MLOAD DUP2 PUSH4 0xFFFFFFFF AND PUSH1 0xE0 SHL DUP2 MSTORE PUSH1 0x4 ADD PUSH1 0x20 PUSH1 0x40 MLOAD DUP1 DUP4 SUB DUP2 DUP7 GAS STATICCALL SWAP3 POP POP POP DUP1 ISZERO PUSH2 0x811 JUMPI POP PUSH1 0x40 MLOAD RETURNDATASIZE PUSH1 0x1F NOT PUSH1 0x1F DUP3 ADD AND DUP3 ADD DUP1 PUSH1 0x40 MSTORE POP DUP2 ADD SWAP1 PUSH2 0x80E SWAP2 SWAP1 PUSH2 0xF65 JUMP JUMPDEST PUSH1 0x1 JUMPDEST PUSH2 0x821 JUMPI PUSH0 SWAP5 POP POP POP POP POP PUSH2 0x86A JUMP JUMPDEST DUP1 PUSH20 0xFFFFFFFFFFFFFFFFFFFFFFFFFFFFFFFFFFFFFFFF AND DUP9 PUSH1 0xE0 ADD PUSH1 0x20 DUP2 ADD SWAP1 PUSH2 0x84B SWAP2 SWAP1 PUSH2 0xEC4 JUMP JUMPDEST PUSH20 0xFFFFFFFFFFFFFFFFFFFFFFFFFFFFFFFFFFFFFFFF AND EQ SWAP6 POP POP POP POP POP POP JUMPDEST SWAP3 SWAP2 POP POP JUMP JUMPDEST PUSH0 PUSH0 PUSH0 SWAP1 POP PUSH27 0x184F03E93FF9F4DAA797ED6E38ED64BF6A1F010000000000000000 DUP4 LT PUSH2 0x8CC JUMPI PUSH27 0x184F03E93FF9F4DAA797ED6E38ED64BF6A1F010000000000000000 DUP4 DUP2 PUSH2 0x8C2 JUMPI PUSH2 0x8C1 PUSH2 0xE3D JUMP JUMPDEST JUMPDEST DIV SWAP3 POP PUSH1 0x40 DUP2 ADD SWAP1 POP JUMPDEST PUSH14 0x4EE2D6D415B85ACEF8100000000 DUP4 LT PUSH2 0x909 JUMPI PUSH14 0x4EE2D6D415B85ACEF8100000000 DUP4 DUP2 PUSH2 0x8FF JUMPI PUSH2 0x8FE PUSH2 0xE3D JUMP JUMPDEST JUMPDEST DIV SWAP3 POP PUSH1 0x20 DUP2 ADD SWAP1 POP JUMPDEST PUSH7 0x2386F26FC10000 DUP4 LT PUSH2 0x938 JUMPI PUSH7 0x2386F26FC10000 DUP4 DUP2 PUSH2 0x92E JUMPI PUSH2 0x92D PUSH2 0xE3D JUMP JUMPDEST JUMPDEST DIV SWAP3 POP PUSH1 0x10 DUP2 ADD SWAP1 POP JUMPDEST PUSH4 0x5F5E100 DUP4 LT PUSH2 0x961 JUMPI PUSH4 0x5F5E100 DUP4 DUP2 PUSH2 0x957 JUMPI PUSH2 0x956 PUSH2 0xE3D JUMP JUMPDEST JUMPDEST DIV SWAP3 POP PUSH1 0x8 DUP2 ADD SWAP1 POP JUMPDEST PUSH2 0x2710 DUP4 LT PUSH2 0x986 JUMPI PUSH2 0x2710 DUP4 DUP2 PUSH2 0x97C JUMPI PUSH2 0x97B PUSH2 0xE3D JUMP JUMPDEST JUMPDEST DIV SWAP3 POP PUSH1 0x4 DUP2 ADD SWAP1 POP JUMPDEST PUSH1 0x64 DUP4 LT PUSH2 0x9A9 JUMPI PUSH1 0x64 DUP4 DUP2 PUSH2 0x99F JUMPI PUSH2 0x99E PUSH2 0xE3D JUMP JUMPDEST JUMPDEST DIV SWAP3 POP PUSH1 0x2 DUP2 ADD SWAP1 POP JUMPDEST PUSH1 0xA DUP4 LT PUSH2 0x9B8 JUMPI PUSH1 0x1 DUP2 ADD SWAP1 POP JUMPDEST DUP1 SWAP2 POP POP SWAP2 SWAP1 POP JUMP JUMPDEST PUSH0 PUSH2 0x120 DUP3 MLOAD LT ISZERO PUSH2 0xA08 JUMPI PUSH1 0x40 MLOAD PUSH32 0x8C379A000000000000000000000000000000000000000000000000000000000 DUP2 MSTORE PUSH1 0x4 ADD PUSH2 0x9FF SWAP1 PUSH2 0xFDA JUMP JUMPDEST PUSH1 0x40 MLOAD DUP1 SWAP2 SUB SWAP1 REVERT JUMPDEST PUSH0 PUSH2 0x120 DUP4 ADD MLOAD SWAP1 POP PUSH1 0x1 DUP2 AND SWAP1 POP PUSH1 0x1 DUP2 EQ SWAP2 POP POP SWAP2 SWAP1 POP JUMP JUMPDEST PUSH0 PUSH2 0x100 DUP3 MLOAD LT ISZERO PUSH2 0xA6A JUMPI PUSH1 0x40 MLOAD PUSH32 0x8C379A000000000000000000000000000000000000000000000000000000000 DUP2 MSTORE PUSH1 0x4 ADD PUSH2 0xA61 SWAP1 PUSH2 0xFDA JUMP JUMPDEST PUSH1 0x40 MLOAD DUP1 SWAP2 SUB SWAP1 REVERT JUMPDEST PUSH0 PUSH2 0x100 DUP4 ADD MLOAD SWAP1 POP DUP1 SWAP2 POP POP SWAP2 SWAP1 POP JUMP JUMPDEST PUSH0 DUP2 MLOAD SWAP1 POP SWAP2 SWAP1 POP JUMP JUMPDEST PUSH0 DUP3 DUP3 MSTORE PUSH1 0x20 DUP3 ADD SWAP1 POP SWAP3 SWAP2 POP POP JUMP JUMPDEST DUP3 DUP2 DUP4 MCOPY PUSH0 DUP4 DUP4 ADD MSTORE POP POP POP JUMP JUMPDEST PUSH0 PUSH1 0x1F NOT PUSH1 0x1F DUP4 ADD AND SWAP1 POP SWAP2 SWAP1 POP JUMP JUMPDEST PUSH0 PUSH2 0xABE DUP3 PUSH2 0xA7C JUMP JUMPDEST PUSH2 0xAC8 DUP2 DUP6 PUSH2 0xA86 JUMP JUMPDEST SWAP4 POP PUSH2 0xAD8 DUP2 DUP6 PUSH1 0x20 DUP7 ADD PUSH2 0xA96 JUMP JUMPDEST PUSH2 0xAE1 DUP2 PUSH2 0xAA4 JUMP JUMPDEST DUP5 ADD SWAP2 POP POP SWAP3 SWAP2 POP POP JUMP JUMPDEST PUSH0 PUSH1 0x20 DUP3 ADD SWAP1 POP DUP2 DUP2 SUB PUSH0 DUP4 ADD MSTORE PUSH2 0xB04 DUP2 DUP5 PUSH2 0xAB4 JUMP JUMPDEST SWAP1 POP SWAP3 SWAP2 POP POP JUMP JUMPDEST PUSH0 PUSH0 REVERT JUMPDEST PUSH0 PUSH0 REVERT JUMPDEST PUSH0 PUSH0 REVERT JUMPDEST PUSH0 PUSH0 REVERT JUMPDEST PUSH0 PUSH0 REVERT JUMPDEST PUSH0 PUSH0 DUP4 PUSH1 0x1F DUP5 ADD SLT PUSH2 0xB35 JUMPI PUSH2 0xB34 PUSH2 0xB14 JUMP JUMPDEST JUMPDEST DUP3 CALLDATALOAD SWAP1 POP PUSH8 0xFFFFFFFFFFFFFFFF DUP2 GT ISZERO PUSH2 0xB52 JUMPI PUSH2 0xB51 PUSH2 0xB18 JUMP JUMPDEST JUMPDEST PUSH1 0x20 DUP4 ADD SWAP2 POP DUP4 PUSH1 0x20 DUP3 MUL DUP4 ADD GT ISZERO PUSH2 0xB6E JUMPI PUSH2 0xB6D PUSH2 0xB1C JUMP JUMPDEST JUMPDEST SWAP3 POP SWAP3 SWAP1 POP JUMP JUMPDEST PUSH0 PUSH0 DUP4 PUSH1 0x1F DUP5 ADD SLT PUSH2 0xB8A JUMPI PUSH2 0xB89 PUSH2 0xB14 JUMP JUMPDEST JUMPDEST DUP3 CALLDATALOAD SWAP1 POP PUSH8 0xFFFFFFFFFFFFFFFF DUP2 GT ISZERO PUSH2 0xBA7 JUMPI PUSH2 0xBA6 PUSH2 0xB18 JUMP JUMPDEST JUMPDEST PUSH1 0x20 DUP4 ADD SWAP2 POP DUP4 PUSH1 0x20 DUP3 MUL DUP4 ADD GT ISZERO PUSH2 0xBC3 JUMPI PUSH2 0xBC2 PUSH2 0xB1C JUMP JUMPDEST JUMPDEST SWAP3 POP SWAP3 SWAP1 POP JUMP JUMPDEST PUSH0 PUSH0 PUSH0 PUSH0 PUSH1 0x40 DUP6 DUP8 SUB SLT ISZERO PUSH2 0xBE2 JUMPI PUSH2 0xBE1 PUSH2 0xB0C JUMP JUMPDEST JUMPDEST PUSH0 DUP6 ADD CALLDATALOAD PUSH8 0xFFFFFFFFFFFFFFFF DUP2 GT ISZERO PUSH2 0xBFF JUMPI PUSH2 0xBFE PUSH2 0xB10 JUMP JUMPDEST JUMPDEST PUSH2 0xC0B DUP8 DUP3 DUP9 ADD PUSH2 0xB20 JUMP JUMPDEST SWAP5 POP SWAP5 POP POP PUSH1 0x20 DUP6 ADD CALLDATALOAD PUSH8 0xFFFFFFFFFFFFFFFF DUP2 GT ISZERO PUSH2 0xC2E JUMPI PUSH2 0xC2D PUSH2 0xB10 JUMP JUMPDEST JUMPDEST PUSH2 0xC3A DUP8 DUP3 DUP9 ADD PUSH2 0xB75 JUMP JUMPDEST SWAP3 POP SWAP3 POP POP SWAP3 SWAP6 SWAP2 SWAP5 POP SWAP3 POP JUMP JUMPDEST PUSH0 DUP2 ISZERO ISZERO SWAP1 POP SWAP2 SWAP1 POP JUMP JUMPDEST PUSH2 0xC5C DUP2 PUSH2 0xC48 JUMP JUMPDEST DUP3 MSTORE POP POP JUMP JUMPDEST PUSH0 PUSH1 0x20 DUP3 ADD SWAP1 POP PUSH2 0xC75 PUSH0 DUP4 ADD DUP5 PUSH2 0xC53 JUMP JUMPDEST SWAP3 SWAP2 POP POP JUMP JUMPDEST PUSH0 PUSH0 REVERT JUMPDEST PUSH0 PUSH2 0x140 DUP3 DUP5 SUB SLT ISZERO PUSH2 0xC95 JUMPI PUSH2 0xC94 PUSH2 0xC7B JUMP JUMPDEST JUMPDEST DUP2 SWAP1 POP SWAP3 SWAP2 POP POP JUMP JUMPDEST PUSH0 PUSH1 0x20 DUP3 DUP5 SUB SLT ISZERO PUSH2 0xCB3 JUMPI PUSH2 0xCB2 PUSH2 0xB0C JUMP JUMPDEST JUMPDEST PUSH0 DUP3 ADD CALLDATALOAD PUSH8 0xFFFFFFFFFFFFFFFF DUP2 GT ISZERO PUSH2 0xCD0 JUMPI PUSH2 0xCCF PUSH2 0xB10 JUMP JUMPDEST JUMPDEST PUSH2 0xCDC DUP5 DUP3 DUP6 ADD PUSH2 0xC7F JUMP JUMPDEST SWAP2 POP POP SWAP3 SWAP2 POP POP JUMP JUMPDEST PUSH0 DUP2 SWAP1 POP SWAP3 SWAP2 POP POP JUMP JUMPDEST PUSH0 PUSH2 0xCF9 DUP3 PUSH2 0xA7C JUMP JUMPDEST PUSH2 0xD03 DUP2 DUP6 PUSH2 0xCE5 JUMP JUMPDEST SWAP4 POP PUSH2 0xD13 DUP2 DUP6 PUSH1 0x20 DUP7 ADD PUSH2 0xA96 JUMP JUMPDEST DUP1 DUP5 ADD SWAP2 POP POP SWAP3 SWAP2 POP POP JUMP JUMPDEST PUSH32 0x2E00000000000000000000000000000000000000000000000000000000000000 PUSH0 DUP3 ADD MSTORE POP JUMP JUMPDEST PUSH0 PUSH2 0xD53 PUSH1 0x1 DUP4 PUSH2 0xCE5 JUMP JUMPDEST SWAP2 POP PUSH2 0xD5E DUP3 PUSH2 0xD1F JUMP JUMPDEST PUSH1 0x1 DUP3 ADD SWAP1 POP SWAP2 SWAP1 POP JUMP JUMPDEST PUSH0 PUSH2 0xD74 DUP3 DUP7 PUSH2 0xCEF JUMP JUMPDEST SWAP2 POP PUSH2 0xD7F DUP3 PUSH2 0xD47 JUMP JUMPDEST SWAP2 POP PUSH2 0xD8B DUP3 DUP6 PUSH2 0xCEF JUMP JUMPDEST SWAP2 POP PUSH2 0xD96 DUP3 PUSH2 0xD47 JUMP JUMPDEST SWAP2 POP PUSH2 0xDA2 DUP3 DUP5 PUSH2 0xCEF JUMP JUMPDEST SWAP2 POP DUP2 SWAP1 POP SWAP5 SWAP4 POP POP POP POP JUMP JUMPDEST PUSH32 0x4E487B7100000000000000000000000000000000000000000000000000000000 PUSH0 MSTORE PUSH1 0x32 PUSH1 0x4 MSTORE PUSH1 0x24 PUSH0 REVERT JUMPDEST PUSH0 PUSH0 REVERT JUMPDEST PUSH0 PUSH0 REVERT JUMPDEST PUSH0 PUSH0 REVERT JUMPDEST PUSH0 DUP3 CALLDATALOAD PUSH1 0x1 PUSH2 0x140 SUB DUP4 CALLDATASIZE SUB SUB DUP2 SLT PUSH2 0xE04 JUMPI PUSH2 0xE03 PUSH2 0xDDC JUMP JUMPDEST JUMPDEST DUP1 DUP4 ADD SWAP2 POP POP SWAP3 SWAP2 POP POP JUMP JUMPDEST PUSH32 0x4E487B7100000000000000000000000000000000000000000000000000000000 PUSH0 MSTORE PUSH1 0x41 PUSH1 0x4 MSTORE PUSH1 0x24 PUSH0 REVERT JUMPDEST PUSH32 0x4E487B7100000000000000000000000000000000000000000000000000000000 PUSH0 MSTORE PUSH1 0x12 PUSH1 0x4 MSTORE PUSH1 0x24 PUSH0 REVERT JUMPDEST PUSH0 PUSH20 0xFFFFFFFFFFFFFFFFFFFFFFFFFFFFFFFFFFFFFFFF DUP3 AND SWAP1 POP SWAP2 SWAP1 POP JUMP JUMPDEST PUSH0 PUSH2 0xE93 DUP3 PUSH2 0xE6A JUMP JUMPDEST SWAP1 POP SWAP2 SWAP1 POP JUMP JUMPDEST PUSH2 0xEA3 DUP2 PUSH2 0xE89 JUMP JUMPDEST DUP2 EQ PUSH2 0xEAD JUMPI PUSH0 PUSH0 REVERT JUMPDEST POP JUMP JUMPDEST PUSH0 DUP2 CALLDATALOAD SWAP1 POP PUSH2 0xEBE DUP2 PUSH2 0xE9A JUMP JUMPDEST SWAP3 SWAP2 POP POP JUMP JUMPDEST PUSH0 PUSH1 0x20 DUP3 DUP5 SUB SLT ISZERO PUSH2 0xED9 JUMPI PUSH2 0xED8 PUSH2 0xB0C JUMP JUMPDEST JUMPDEST PUSH0 PUSH2 0xEE6 DUP5 DUP3 DUP6 ADD PUSH2 0xEB0 JUMP JUMPDEST SWAP2 POP POP SWAP3 SWAP2 POP POP JUMP JUMPDEST PUSH0 PUSH0 DUP4 CALLDATALOAD PUSH1 0x1 PUSH1 0x20 SUB DUP5 CALLDATASIZE SUB SUB DUP2 SLT PUSH2 0xF0B JUMPI PUSH2 0xF0A PUSH2 0xDDC JUMP JUMPDEST JUMPDEST DUP1 DUP5 ADD SWAP3 POP DUP3 CALLDATALOAD SWAP2 POP PUSH8 0xFFFFFFFFFFFFFFFF DUP3 GT ISZERO PUSH2 0xF2D JUMPI PUSH2 0xF2C PUSH2 0xDE0 JUMP JUMPDEST JUMPDEST PUSH1 0x20 DUP4 ADD SWAP3 POP PUSH1 0x1 DUP3 MUL CALLDATASIZE SUB DUP4 SGT ISZERO PUSH2 0xF49 JUMPI PUSH2 0xF48 PUSH2 0xDE4 JUMP JUMPDEST JUMPDEST POP SWAP3 POP SWAP3 SWAP1 POP JUMP JUMPDEST PUSH0 DUP2 MLOAD SWAP1 POP PUSH2 0xF5F DUP2 PUSH2 0xE9A JUMP JUMPDEST SWAP3 SWAP2 POP POP JUMP JUMPDEST PUSH0 PUSH1 0x20 DUP3 DUP5 SUB SLT ISZERO PUSH2 0xF7A JUMPI PUSH2 0xF79 PUSH2 0xB0C JUMP JUMPDEST JUMPDEST PUSH0 PUSH2 0xF87 DUP5 DUP3 DUP6 ADD PUSH2 0xF51 JUMP JUMPDEST SWAP2 POP POP SWAP3 SWAP2 POP POP JUMP JUMPDEST PUSH32 0x4461746120746F6F2073686F7274000000000000000000000000000000000000 PUSH0 DUP3 ADD MSTORE POP JUMP JUMPDEST PUSH0 PUSH2 0xFC4 PUSH1 0xE DUP4 PUSH2 0xA86 JUMP JUMPDEST SWAP2 POP PUSH2 0xFCF DUP3 PUSH2 0xF90 JUMP JUMPDEST PUSH1 0x20 DUP3 ADD SWAP1 POP SWAP2 SWAP1 POP JUMP JUMPDEST PUSH0 PUSH1 0x20 DUP3 ADD SWAP1 POP DUP2 DUP2 SUB PUSH0 DUP4 ADD MSTORE PUSH2 0xFF1 DUP2 PUSH2 0xFB8 JUMP JUMPDEST SWAP1 POP SWAP2 SWAP1 POP JUMP INVALID LOG2 PUSH5 0x6970667358 0x22 SLT KECCAK256 0x2A AND JUMPDEST 0x21 0x1F DUP14 0x28 TIMESTAMP CREATE2 PUSH30 0x20DB383511EBB4D61EEF2F4CAEE4A6E869DE0A5021AD64736F6C63430008 SHL STOP CALLER "
				},
				"gasEstimates": {
					"creation": {
						"codeDepositCost": "828400",
						"executionCost": "infinite",
						"totalCost": "infinite"
					},
					"external": {
						"attest((bytes32,bytes32,uint64,uint64,uint64,bytes32,address,address,bool,bytes))": "infinite",
						"isPayable()": "381",
						"multiAttest((bytes32,bytes32,uint64,uint64,uint64,bytes32,address,address,bool,bytes)[],uint256[])": "infinite",
						"multiRevoke((bytes32,bytes32,uint64,uint64,uint64,bytes32,address,address,bool,bytes)[],uint256[])": "infinite",
						"revoke((bytes32,bytes32,uint64,uint64,uint64,bytes32,address,address,bool,bytes))": "infinite",
						"version()": "infinite"
					},
					"internal": {
						"extractChainIdFromData(bytes memory)": "infinite",
						"extractOwnableCheckFromData(bytes memory)": "infinite",
						"onAttest(struct Attestation calldata,uint256)": "infinite",
						"onRevoke(struct Attestation calldata,uint256)": "29"
					}
				},
				"methodIdentifiers": {
					"attest((bytes32,bytes32,uint64,uint64,uint64,bytes32,address,address,bool,bytes))": "e60c3505",
					"isPayable()": "ce46e046",
					"multiAttest((bytes32,bytes32,uint64,uint64,uint64,bytes32,address,address,bool,bytes)[],uint256[])": "91db0b7e",
					"multiRevoke((bytes32,bytes32,uint64,uint64,uint64,bytes32,address,address,bool,bytes)[],uint256[])": "88e5b2d9",
					"revoke((bytes32,bytes32,uint64,uint64,uint64,bytes32,address,address,bool,bytes))": "e49617e1",
					"version()": "54fd4d50"
				}
			},
			"storageLayout": {
				"storage": [],
				"types": null
			},
			"userdoc": {
				"kind": "user",
				"methods": {
					"attest((bytes32,bytes32,uint64,uint64,uint64,bytes32,address,address,bool,bytes))": {
						"notice": "Processes an attestation and verifies whether it's valid."
					},
					"isPayable()": {
						"notice": "Checks if the resolver can be sent ETH."
					},
					"multiAttest((bytes32,bytes32,uint64,uint64,uint64,bytes32,address,address,bool,bytes)[],uint256[])": {
						"notice": "Processes multiple attestations and verifies whether they are valid."
					},
					"multiRevoke((bytes32,bytes32,uint64,uint64,uint64,bytes32,address,address,bool,bytes)[],uint256[])": {
						"notice": "Processes revocation of multiple attestation and verifies they can be revoked."
					},
					"revoke((bytes32,bytes32,uint64,uint64,uint64,bytes32,address,address,bool,bytes))": {
						"notice": "Processes an attestation revocation and verifies if it can be revoked."
					},
					"version()": {
						"notice": "Returns the full semver contract version."
					}
				},
				"version": 1
			}
		}
	}
}